{
    "000-fork=Cancun-new_blobs=1-zero_blobs_decrease_more_than_expected-correct:0x40000-header:0x20000": {
        "_info": {
            "filling-transition-tool": "evm version 1.12.1-unstable-dc9e61da-20230801",
            "reference-spec": "https://github.com/ethereum/EIPs/blob/master/EIPS/eip-4844.md",
            "reference-spec-version": "f0eb6a364aaf5ccb43516fa2c269a54fb881ecfd"
        },
        "blocks": [
            {
                "rlp": "0xf902d3f90242a0fcc5882028b64b062095eb51b1ca471ead8e739872c019431daeb1ab7b09aecca01dcc4de8dec75d7aab85b567b6ccd41ad312451b948a7413f0a142fd40d49347942adc25665018aa1fe0e6bc666dac8fc2697ff9baa0c984bafebe6d36e8e067cc08783b85109d4b9f92f8dd2bc6e9f2e9f1f6dc3ed4a0da80a6acad2089c995d9df6604f54f2102eb7a3bc73b001957ef851ee3606902a0eaa8c40899a61ae59615cf9985f5e2194f8fd2b57d273be63bde6733e89b12abb9010000000000000000000000000000000000000000000000000000000000000000000000000000000000000000000000000000000000000000000000000000000000000000000000000000000000000000000000000000000000000000000000000000000000000000000000000000000000000000000000000000000000000000000000000000000000000000000000000000000000000000000000000000000000000000000000000000000000000000000000000000000000000000000000000000000000000000000000000000000000000000000000000000000000000000000000000000000000000000000000000000000000000000000000000000000000800188016345785d8a00008252080c80a0000000000000000000000000000000000000000000000000000000000000000088000000000000000007a056e81f171bcc55a6ff8345e692c0f86e5b48e01b996cadc001622fb5e363b4218302000083020000a00000000000000000000000000000000000000000000000000000000000000000f88ab88803f885018080078252089400000000000000000000000000000000000001000180c001e1a0010000000000000000000000000000000000000000000000000000000000000001a0a8f4757869fbb831ba4ed3a7c8f868b0e2e0c1eda97937aab035560fffdedf3ca019d9b041540e3d6f5f56dc29deb8834a08171e92037cf567b922357e70f8e54ac0c0",
                "engineNewPayload": {
                    "executionPayload": {
                        "parentHash": "0xfcc5882028b64b062095eb51b1ca471ead8e739872c019431daeb1ab7b09aecc",
                        "feeRecipient": "0x2adc25665018aa1fe0e6bc666dac8fc2697ff9ba",
                        "stateRoot": "0xc984bafebe6d36e8e067cc08783b85109d4b9f92f8dd2bc6e9f2e9f1f6dc3ed4",
                        "receiptsRoot": "0xeaa8c40899a61ae59615cf9985f5e2194f8fd2b57d273be63bde6733e89b12ab",
                        "logsBloom": "0x00000000000000000000000000000000000000000000000000000000000000000000000000000000000000000000000000000000000000000000000000000000000000000000000000000000000000000000000000000000000000000000000000000000000000000000000000000000000000000000000000000000000000000000000000000000000000000000000000000000000000000000000000000000000000000000000000000000000000000000000000000000000000000000000000000000000000000000000000000000000000000000000000000000000000000000000000000000000000000000000000000000000000000000000000000000",
                        "blockNumber": "0x1",
                        "gasLimit": "0x16345785d8a0000",
                        "gasUsed": "0x5208",
                        "timestamp": "0xc",
                        "extraData": "0x",
                        "prevRandao": "0x0000000000000000000000000000000000000000000000000000000000000000",
                        "baseFeePerGas": "0x7",
                        "blobGasUsed": "0x20000",
                        "excessBlobGas": "0x20000",
                        "blockHash": "0x6a8d07f8f00844ca374331cd2ada257e79004b5ae6d9092686e2704a2d97b591",
                        "transactions": [
                            "0x03f885018080078252089400000000000000000000000000000000000001000180c001e1a0010000000000000000000000000000000000000000000000000000000000000001a0a8f4757869fbb831ba4ed3a7c8f868b0e2e0c1eda97937aab035560fffdedf3ca019d9b041540e3d6f5f56dc29deb8834a08171e92037cf567b922357e70f8e54a"
                        ],
                        "withdrawals": []
                    },
                    "expectedBlobVersionedHashes": [
                        "0x0100000000000000000000000000000000000000000000000000000000000000"
                    ],
                    "version": "3",
                    "parentBeaconBlockRoot": "0x0000000000000000000000000000000000000000000000000000000000000000"
                },
                "expectException": "invalid excess blob gas",
                "blocknumber": "1"
            }
        ],
        "genesisBlockHeader": {
            "parentHash": "0x0000000000000000000000000000000000000000000000000000000000000000",
            "uncleHash": "0x1dcc4de8dec75d7aab85b567b6ccd41ad312451b948a7413f0a142fd40d49347",
            "coinbase": "0x0000000000000000000000000000000000000000",
            "stateRoot": "0xa6445114c52c574df195ea8d516422607845192677c5ce2096c640ae28bd7574",
            "transactionsTrie": "0x56e81f171bcc55a6ff8345e692c0f86e5b48e01b996cadc001622fb5e363b421",
            "receiptTrie": "0x56e81f171bcc55a6ff8345e692c0f86e5b48e01b996cadc001622fb5e363b421",
            "bloom": "0x00000000000000000000000000000000000000000000000000000000000000000000000000000000000000000000000000000000000000000000000000000000000000000000000000000000000000000000000000000000000000000000000000000000000000000000000000000000000000000000000000000000000000000000000000000000000000000000000000000000000000000000000000000000000000000000000000000000000000000000000000000000000000000000000000000000000000000000000000000000000000000000000000000000000000000000000000000000000000000000000000000000000000000000000000000000",
            "difficulty": "0x00",
            "number": "0x00",
            "gasLimit": "0x016345785d8a0000",
            "gasUsed": "0x00",
            "timestamp": "0x00",
            "extraData": "0x00",
            "mixHash": "0x0000000000000000000000000000000000000000000000000000000000000000",
            "nonce": "0x0000000000000000",
            "baseFeePerGas": "0x07",
            "withdrawalsRoot": "0x56e81f171bcc55a6ff8345e692c0f86e5b48e01b996cadc001622fb5e363b421",
            "blobGasUsed": "0x00",
            "excessBlobGas": "0x0a0000",
            "parentBeaconBlockRoot": "0x0000000000000000000000000000000000000000000000000000000000000000",
            "hash": "0xfcc5882028b64b062095eb51b1ca471ead8e739872c019431daeb1ab7b09aecc"
        },
        "genesisRLP": "0xf90243f9023da00000000000000000000000000000000000000000000000000000000000000000a01dcc4de8dec75d7aab85b567b6ccd41ad312451b948a7413f0a142fd40d49347940000000000000000000000000000000000000000a0a6445114c52c574df195ea8d516422607845192677c5ce2096c640ae28bd7574a056e81f171bcc55a6ff8345e692c0f86e5b48e01b996cadc001622fb5e363b421a056e81f171bcc55a6ff8345e692c0f86e5b48e01b996cadc001622fb5e363b421b9010000000000000000000000000000000000000000000000000000000000000000000000000000000000000000000000000000000000000000000000000000000000000000000000000000000000000000000000000000000000000000000000000000000000000000000000000000000000000000000000000000000000000000000000000000000000000000000000000000000000000000000000000000000000000000000000000000000000000000000000000000000000000000000000000000000000000000000000000000000000000000000000000000000000000000000000000000000000000000000000000000000000000000000000000000000000808088016345785d8a0000808000a0000000000000000000000000000000000000000000000000000000000000000088000000000000000007a056e81f171bcc55a6ff8345e692c0f86e5b48e01b996cadc001622fb5e363b42180830a0000a00000000000000000000000000000000000000000000000000000000000000000c0c0c0",
        "lastblockhash": "0xfcc5882028b64b062095eb51b1ca471ead8e739872c019431daeb1ab7b09aecc",
        "network": "Cancun",
        "pre": {
            "0x000000000000000000000000000000000000000b": {
                "nonce": "0x01",
                "balance": "0x01",
                "code": "0x",
                "storage": {}
            },
            "0x8a0a19589531694250d570040a0c4b74576919b8": {
                "nonce": "0x00",
                "balance": "0x1d6329f1c35ca4bfabb9f5610000000000",
                "code": "0x",
                "storage": {}
            },
            "0xa94f5374fce5edbc8e2a8697c15331677e6ebf0b": {
                "nonce": "0x00",
                "balance": "0x043e39",
                "code": "0x",
                "storage": {}
            }
        },
        "postState": {
            "0x000000000000000000000000000000000000000b": {
                "nonce": "0x01",
                "balance": "0x01",
                "code": "0x",
                "storage": {}
            },
            "0x8a0a19589531694250d570040a0c4b74576919b8": {
                "nonce": "0x00",
                "balance": "0x1d6329f1c35ca4bfabb9f5610000000000",
                "code": "0x",
                "storage": {}
            },
            "0xa94f5374fce5edbc8e2a8697c15331677e6ebf0b": {
                "nonce": "0x00",
                "balance": "0x043e39",
                "code": "0x",
                "storage": {}
            }
        },
        "sealEngine": "NoProof"
    },
    "001-fork=Cancun-new_blobs=1-max_blobs_increase_more_than_expected-correct:0x100000-header:0x120000": {
        "_info": {
            "filling-transition-tool": "evm version 1.12.1-unstable-dc9e61da-20230801",
            "reference-spec": "https://github.com/ethereum/EIPs/blob/master/EIPS/eip-4844.md",
            "reference-spec-version": "f0eb6a364aaf5ccb43516fa2c269a54fb881ecfd"
        },
        "blocks": [
            {
                "rlp": "0xf9037cf90242a044f6c4b1a8f5564a984a45d91c92d623e5f2b99e9c6f202f85b5189a0ed9c526a01dcc4de8dec75d7aab85b567b6ccd41ad312451b948a7413f0a142fd40d49347942adc25665018aa1fe0e6bc666dac8fc2697ff9baa06c2eb345158a58b7c01d477c0cf8333a5a15e599e2ed0834bee86cdc069cca6da0373d7b01af589d52e2f048397a9c9cab50f15f4a4448fd9bb93c01567dd73de9a0eaa8c40899a61ae59615cf9985f5e2194f8fd2b57d273be63bde6733e89b12abb9010000000000000000000000000000000000000000000000000000000000000000000000000000000000000000000000000000000000000000000000000000000000000000000000000000000000000000000000000000000000000000000000000000000000000000000000000000000000000000000000000000000000000000000000000000000000000000000000000000000000000000000000000000000000000000000000000000000000000000000000000000000000000000000000000000000000000000000000000000000000000000000000000000000000000000000000000000000000000000000000000000000000000000000000000000000000800188016345785d8a00008252080c80a0000000000000000000000000000000000000000000000000000000000000000088000000000000000007a056e81f171bcc55a6ff8345e692c0f86e5b48e01b996cadc001622fb5e363b421830c0000830a0000a00000000000000000000000000000000000000000000000000000000000000000f90132b9012f03f9012b018080078252089400000000000000000000000000000000000002000180c001f8c6a00100000000000000000000000000000000000000000000000000000000000000a00100000000000000000000000000000000000000000000000000000000000001a00100000000000000000000000000000000000000000000000000000000000002a00100000000000000000000000000000000000000000000000000000000000003a00100000000000000000000000000000000000000000000000000000000000004a0010000000000000000000000000000000000000000000000000000000000000501a07de2acc384244ae903c1a2821287cd72f11a1728b928913e7aea64f590d03873a055bbcad901588ceb485098d31e30650ce15d22bfdfd3725e4ce953576182d7d3c0c0",
                "blockHeader": {
                    "parentHash": "0x44f6c4b1a8f5564a984a45d91c92d623e5f2b99e9c6f202f85b5189a0ed9c526",
                    "uncleHash": "0x1dcc4de8dec75d7aab85b567b6ccd41ad312451b948a7413f0a142fd40d49347",
                    "coinbase": "0x2adc25665018aa1fe0e6bc666dac8fc2697ff9ba",
                    "stateRoot": "0x6c2eb345158a58b7c01d477c0cf8333a5a15e599e2ed0834bee86cdc069cca6d",
                    "transactionsTrie": "0x373d7b01af589d52e2f048397a9c9cab50f15f4a4448fd9bb93c01567dd73de9",
                    "receiptTrie": "0xeaa8c40899a61ae59615cf9985f5e2194f8fd2b57d273be63bde6733e89b12ab",
                    "bloom": "0x00000000000000000000000000000000000000000000000000000000000000000000000000000000000000000000000000000000000000000000000000000000000000000000000000000000000000000000000000000000000000000000000000000000000000000000000000000000000000000000000000000000000000000000000000000000000000000000000000000000000000000000000000000000000000000000000000000000000000000000000000000000000000000000000000000000000000000000000000000000000000000000000000000000000000000000000000000000000000000000000000000000000000000000000000000000",
                    "difficulty": "0x00",
                    "number": "0x01",
                    "gasLimit": "0x016345785d8a0000",
                    "gasUsed": "0x5208",
                    "timestamp": "0x0c",
                    "extraData": "0x",
                    "mixHash": "0x0000000000000000000000000000000000000000000000000000000000000000",
                    "nonce": "0x0000000000000000",
                    "baseFeePerGas": "0x07",
                    "withdrawalsRoot": "0x56e81f171bcc55a6ff8345e692c0f86e5b48e01b996cadc001622fb5e363b421",
                    "blobGasUsed": "0x0c0000",
                    "excessBlobGas": "0x0a0000",
                    "parentBeaconBlockRoot": "0x0000000000000000000000000000000000000000000000000000000000000000",
                    "hash": "0xf7842083790f9dd1616dd861ad059c1c684162a04c5a84bc6a32e91a9d086f0a"
                },
                "engineNewPayload": {
                    "executionPayload": {
                        "parentHash": "0x44f6c4b1a8f5564a984a45d91c92d623e5f2b99e9c6f202f85b5189a0ed9c526",
                        "feeRecipient": "0x2adc25665018aa1fe0e6bc666dac8fc2697ff9ba",
                        "stateRoot": "0x6c2eb345158a58b7c01d477c0cf8333a5a15e599e2ed0834bee86cdc069cca6d",
                        "receiptsRoot": "0xeaa8c40899a61ae59615cf9985f5e2194f8fd2b57d273be63bde6733e89b12ab",
                        "logsBloom": "0x00000000000000000000000000000000000000000000000000000000000000000000000000000000000000000000000000000000000000000000000000000000000000000000000000000000000000000000000000000000000000000000000000000000000000000000000000000000000000000000000000000000000000000000000000000000000000000000000000000000000000000000000000000000000000000000000000000000000000000000000000000000000000000000000000000000000000000000000000000000000000000000000000000000000000000000000000000000000000000000000000000000000000000000000000000000",
                        "blockNumber": "0x1",
                        "gasLimit": "0x16345785d8a0000",
                        "gasUsed": "0x5208",
                        "timestamp": "0xc",
                        "extraData": "0x",
                        "prevRandao": "0x0000000000000000000000000000000000000000000000000000000000000000",
                        "baseFeePerGas": "0x7",
                        "blobGasUsed": "0xc0000",
                        "excessBlobGas": "0xa0000",
                        "blockHash": "0xf7842083790f9dd1616dd861ad059c1c684162a04c5a84bc6a32e91a9d086f0a",
                        "transactions": [
                            "0x03f9012b018080078252089400000000000000000000000000000000000002000180c001f8c6a00100000000000000000000000000000000000000000000000000000000000000a00100000000000000000000000000000000000000000000000000000000000001a00100000000000000000000000000000000000000000000000000000000000002a00100000000000000000000000000000000000000000000000000000000000003a00100000000000000000000000000000000000000000000000000000000000004a0010000000000000000000000000000000000000000000000000000000000000501a07de2acc384244ae903c1a2821287cd72f11a1728b928913e7aea64f590d03873a055bbcad901588ceb485098d31e30650ce15d22bfdfd3725e4ce953576182d7d3"
                        ],
                        "withdrawals": []
                    },
                    "expectedBlobVersionedHashes": [
                        "0x0100000000000000000000000000000000000000000000000000000000000000",
                        "0x0100000000000000000000000000000000000000000000000000000000000001",
                        "0x0100000000000000000000000000000000000000000000000000000000000002",
                        "0x0100000000000000000000000000000000000000000000000000000000000003",
                        "0x0100000000000000000000000000000000000000000000000000000000000004",
                        "0x0100000000000000000000000000000000000000000000000000000000000005"
                    ],
                    "version": "3",
                    "parentBeaconBlockRoot": "0x0000000000000000000000000000000000000000000000000000000000000000"
                },
                "blocknumber": "1",
                "transactions": [
                    {
                        "type": "0x03",
                        "chainId": "0x01",
                        "nonce": "0x00",
                        "maxPriorityFeePerGas": "0x00",
                        "maxFeePerGas": "0x07",
                        "gasLimit": "0x5208",
                        "to": "0x0000000000000000000000000000000000000200",
                        "value": "0x01",
                        "data": "0x",
                        "accessList": [],
                        "maxFeePerBlobGas": "0x01",
                        "blobVersionedHashes": [
                            "0x0100000000000000000000000000000000000000000000000000000000000000",
                            "0x0100000000000000000000000000000000000000000000000000000000000001",
                            "0x0100000000000000000000000000000000000000000000000000000000000002",
                            "0x0100000000000000000000000000000000000000000000000000000000000003",
                            "0x0100000000000000000000000000000000000000000000000000000000000004",
                            "0x0100000000000000000000000000000000000000000000000000000000000005"
                        ],
                        "v": "0x01",
                        "r": "0x7de2acc384244ae903c1a2821287cd72f11a1728b928913e7aea64f590d03873",
                        "s": "0x55bbcad901588ceb485098d31e30650ce15d22bfdfd3725e4ce953576182d7d3",
                        "sender": "0x8a0a19589531694250d570040a0c4b74576919b8"
                    }
                ],
                "uncleHeaders": [],
                "withdrawals": []
            },
            {
                "rlp": "0xf902d3f90242a0f7842083790f9dd1616dd861ad059c1c684162a04c5a84bc6a32e91a9d086f0aa01dcc4de8dec75d7aab85b567b6ccd41ad312451b948a7413f0a142fd40d49347942adc25665018aa1fe0e6bc666dac8fc2697ff9baa0353441a4e02c654e837b78bd3ba42533db10183c9f4a2ec82d36eab4c0a88c1ca0da80a6acad2089c995d9df6604f54f2102eb7a3bc73b001957ef851ee3606902a0eaa8c40899a61ae59615cf9985f5e2194f8fd2b57d273be63bde6733e89b12abb9010000000000000000000000000000000000000000000000000000000000000000000000000000000000000000000000000000000000000000000000000000000000000000000000000000000000000000000000000000000000000000000000000000000000000000000000000000000000000000000000000000000000000000000000000000000000000000000000000000000000000000000000000000000000000000000000000000000000000000000000000000000000000000000000000000000000000000000000000000000000000000000000000000000000000000000000000000000000000000000000000000000000000000000000000000000000800288016345785d8a00008252081880a0000000000000000000000000000000000000000000000000000000000000000088000000000000000007a056e81f171bcc55a6ff8345e692c0f86e5b48e01b996cadc001622fb5e363b4218302000083120000a00000000000000000000000000000000000000000000000000000000000000000f88ab88803f885018080078252089400000000000000000000000000000000000001000180c001e1a0010000000000000000000000000000000000000000000000000000000000000001a0a8f4757869fbb831ba4ed3a7c8f868b0e2e0c1eda97937aab035560fffdedf3ca019d9b041540e3d6f5f56dc29deb8834a08171e92037cf567b922357e70f8e54ac0c0",
                "engineNewPayload": {
                    "executionPayload": {
                        "parentHash": "0xf7842083790f9dd1616dd861ad059c1c684162a04c5a84bc6a32e91a9d086f0a",
                        "feeRecipient": "0x2adc25665018aa1fe0e6bc666dac8fc2697ff9ba",
                        "stateRoot": "0x353441a4e02c654e837b78bd3ba42533db10183c9f4a2ec82d36eab4c0a88c1c",
                        "receiptsRoot": "0xeaa8c40899a61ae59615cf9985f5e2194f8fd2b57d273be63bde6733e89b12ab",
                        "logsBloom": "0x00000000000000000000000000000000000000000000000000000000000000000000000000000000000000000000000000000000000000000000000000000000000000000000000000000000000000000000000000000000000000000000000000000000000000000000000000000000000000000000000000000000000000000000000000000000000000000000000000000000000000000000000000000000000000000000000000000000000000000000000000000000000000000000000000000000000000000000000000000000000000000000000000000000000000000000000000000000000000000000000000000000000000000000000000000000",
                        "blockNumber": "0x2",
                        "gasLimit": "0x16345785d8a0000",
                        "gasUsed": "0x5208",
                        "timestamp": "0x18",
                        "extraData": "0x",
                        "prevRandao": "0x0000000000000000000000000000000000000000000000000000000000000000",
                        "baseFeePerGas": "0x7",
                        "blobGasUsed": "0x20000",
                        "excessBlobGas": "0x120000",
                        "blockHash": "0x5ba8fe32556e78cdea560cc9c10f0c4edbd5aa81d9de5fa105434a81814582c1",
                        "transactions": [
                            "0x03f885018080078252089400000000000000000000000000000000000001000180c001e1a0010000000000000000000000000000000000000000000000000000000000000001a0a8f4757869fbb831ba4ed3a7c8f868b0e2e0c1eda97937aab035560fffdedf3ca019d9b041540e3d6f5f56dc29deb8834a08171e92037cf567b922357e70f8e54a"
                        ],
                        "withdrawals": []
                    },
                    "expectedBlobVersionedHashes": [
                        "0x0100000000000000000000000000000000000000000000000000000000000000"
                    ],
                    "version": "3",
                    "parentBeaconBlockRoot": "0x0000000000000000000000000000000000000000000000000000000000000000"
                },
                "expectException": "invalid excess blob gas",
                "blocknumber": "2"
            }
        ],
        "genesisBlockHeader": {
            "parentHash": "0x0000000000000000000000000000000000000000000000000000000000000000",
            "uncleHash": "0x1dcc4de8dec75d7aab85b567b6ccd41ad312451b948a7413f0a142fd40d49347",
            "coinbase": "0x0000000000000000000000000000000000000000",
            "stateRoot": "0xa6445114c52c574df195ea8d516422607845192677c5ce2096c640ae28bd7574",
            "transactionsTrie": "0x56e81f171bcc55a6ff8345e692c0f86e5b48e01b996cadc001622fb5e363b421",
            "receiptTrie": "0x56e81f171bcc55a6ff8345e692c0f86e5b48e01b996cadc001622fb5e363b421",
            "bloom": "0x00000000000000000000000000000000000000000000000000000000000000000000000000000000000000000000000000000000000000000000000000000000000000000000000000000000000000000000000000000000000000000000000000000000000000000000000000000000000000000000000000000000000000000000000000000000000000000000000000000000000000000000000000000000000000000000000000000000000000000000000000000000000000000000000000000000000000000000000000000000000000000000000000000000000000000000000000000000000000000000000000000000000000000000000000000000",
            "difficulty": "0x00",
            "number": "0x00",
            "gasLimit": "0x016345785d8a0000",
            "gasUsed": "0x00",
            "timestamp": "0x00",
            "extraData": "0x00",
            "mixHash": "0x0000000000000000000000000000000000000000000000000000000000000000",
            "nonce": "0x0000000000000000",
            "baseFeePerGas": "0x07",
            "withdrawalsRoot": "0x56e81f171bcc55a6ff8345e692c0f86e5b48e01b996cadc001622fb5e363b421",
            "blobGasUsed": "0x00",
            "excessBlobGas": "0x100000",
            "parentBeaconBlockRoot": "0x0000000000000000000000000000000000000000000000000000000000000000",
            "hash": "0x44f6c4b1a8f5564a984a45d91c92d623e5f2b99e9c6f202f85b5189a0ed9c526"
        },
        "genesisRLP": "0xf90243f9023da00000000000000000000000000000000000000000000000000000000000000000a01dcc4de8dec75d7aab85b567b6ccd41ad312451b948a7413f0a142fd40d49347940000000000000000000000000000000000000000a0a6445114c52c574df195ea8d516422607845192677c5ce2096c640ae28bd7574a056e81f171bcc55a6ff8345e692c0f86e5b48e01b996cadc001622fb5e363b421a056e81f171bcc55a6ff8345e692c0f86e5b48e01b996cadc001622fb5e363b421b9010000000000000000000000000000000000000000000000000000000000000000000000000000000000000000000000000000000000000000000000000000000000000000000000000000000000000000000000000000000000000000000000000000000000000000000000000000000000000000000000000000000000000000000000000000000000000000000000000000000000000000000000000000000000000000000000000000000000000000000000000000000000000000000000000000000000000000000000000000000000000000000000000000000000000000000000000000000000000000000000000000000000000000000000000000000000808088016345785d8a0000808000a0000000000000000000000000000000000000000000000000000000000000000088000000000000000007a056e81f171bcc55a6ff8345e692c0f86e5b48e01b996cadc001622fb5e363b4218083100000a00000000000000000000000000000000000000000000000000000000000000000c0c0c0",
        "lastblockhash": "0xf7842083790f9dd1616dd861ad059c1c684162a04c5a84bc6a32e91a9d086f0a",
        "network": "Cancun",
        "pre": {
            "0x000000000000000000000000000000000000000b": {
                "nonce": "0x01",
                "balance": "0x01",
                "code": "0x",
                "storage": {}
            },
            "0x8a0a19589531694250d570040a0c4b74576919b8": {
                "nonce": "0x00",
                "balance": "0x1d6329f1c35ca4bfabb9f5610000000000",
                "code": "0x",
                "storage": {}
            },
            "0xa94f5374fce5edbc8e2a8697c15331677e6ebf0b": {
                "nonce": "0x00",
                "balance": "0x043e39",
                "code": "0x",
                "storage": {}
            }
        },
        "postState": {
            "0x000000000000000000000000000000000000000b": {
                "nonce": "0x01",
                "balance": "0x01",
                "code": "0x",
                "storage": {
                    "0x0c": "0x0c"
                }
            },
            "0x0000000000000000000000000000000000000200": {
                "nonce": "0x00",
                "balance": "0x01",
                "code": "0x",
                "storage": {}
            },
            "0x8a0a19589531694250d570040a0c4b74576919b8": {
                "nonce": "0x01",
                "balance": "0x1d6329f1c35ca4bfabb9f560fffff1c1c7",
                "code": "0x",
                "storage": {}
            },
            "0xa94f5374fce5edbc8e2a8697c15331677e6ebf0b": {
                "nonce": "0x00",
                "balance": "0x043e39",
                "code": "0x",
                "storage": {}
            }
        },
        "sealEngine": "NoProof"
    }
}