{
    "000-fork=Cancun-tx_gas=500000-opcode=ORIGIN": {
        "_info": {
            "filling-transition-tool": "evm version 1.12.1-unstable-dc9e61da-20230801",
            "reference-spec": "https://github.com/ethereum/EIPs/blob/master/EIPS/eip-4844.md",
            "reference-spec-version": "f0eb6a364aaf5ccb43516fa2c269a54fb881ecfd"
        },
        "blocks": [
            {
                "rlp": "0xf902d4f90242a0a8119ef7c19a636435588e521d8f23fb1b3da056f9f451e401c8bbdfba94b2e0a01dcc4de8dec75d7aab85b567b6ccd41ad312451b948a7413f0a142fd40d49347942adc25665018aa1fe0e6bc666dac8fc2697ff9baa04b0e74fd9b5bafd86fdaa561ba5e9a34da124e5984aabc287bf09edc12b64e50a01f3581f26a0e6593c47b5d11210be45819176d1d04794911c1715d4840ab4875a0c117ad0158b04d4277c8a0d1b440360bf3f011ad7caccf8740df472c96e8f5ccb9010000000000000000000000000000000000000000000000000000000000000000000000000000000000000000000000000000000000000000000000000000000000000000000000000000000000000000000000000000000000000000000000000000000000000000000000000000000000000000000000000000000000000000000000000000000000000000000000000000000000000000000000000000000000000000000000000000000000000000000000000000000000000000000000000000000000000000000000000000000000000000000000000000000000000000000000000000000000000000000000000000000000000000000000000000000000800188016345785d8a000082a8610c80a0000000000000000000000000000000000000000000000000000000000000000088000000000000000007a056e81f171bcc55a6ff8345e692c0f86e5b48e01b996cadc001622fb5e363b42183020000830e0000a00000000000000000000000000000000000000000000000000000000000000000f88bb88903f886018080078307a1209400000000000000000000000000000000000001000180c001e1a0010000000000000000000000000000000000000000000000000000000000000001a08633745d9ccae895b1cd9b35473bf2c2f19230b32ebecf93fcf6e98e08868a7fa02df5e81e127ad763e99e70e134ea214d74d47e80787950b1959551c7b61f68eac0c0",
                "blockHeader": {
                    "parentHash": "0xa8119ef7c19a636435588e521d8f23fb1b3da056f9f451e401c8bbdfba94b2e0",
                    "uncleHash": "0x1dcc4de8dec75d7aab85b567b6ccd41ad312451b948a7413f0a142fd40d49347",
                    "coinbase": "0x2adc25665018aa1fe0e6bc666dac8fc2697ff9ba",
                    "stateRoot": "0x4b0e74fd9b5bafd86fdaa561ba5e9a34da124e5984aabc287bf09edc12b64e50",
                    "transactionsTrie": "0x1f3581f26a0e6593c47b5d11210be45819176d1d04794911c1715d4840ab4875",
                    "receiptTrie": "0xc117ad0158b04d4277c8a0d1b440360bf3f011ad7caccf8740df472c96e8f5cc",
                    "bloom": "0x00000000000000000000000000000000000000000000000000000000000000000000000000000000000000000000000000000000000000000000000000000000000000000000000000000000000000000000000000000000000000000000000000000000000000000000000000000000000000000000000000000000000000000000000000000000000000000000000000000000000000000000000000000000000000000000000000000000000000000000000000000000000000000000000000000000000000000000000000000000000000000000000000000000000000000000000000000000000000000000000000000000000000000000000000000000",
                    "difficulty": "0x00",
                    "number": "0x01",
                    "gasLimit": "0x016345785d8a0000",
                    "gasUsed": "0xa861",
                    "timestamp": "0x0c",
                    "extraData": "0x",
                    "mixHash": "0x0000000000000000000000000000000000000000000000000000000000000000",
                    "nonce": "0x0000000000000000",
                    "baseFeePerGas": "0x07",
                    "withdrawalsRoot": "0x56e81f171bcc55a6ff8345e692c0f86e5b48e01b996cadc001622fb5e363b421",
                    "blobGasUsed": "0x020000",
                    "excessBlobGas": "0x0e0000",
                    "parentBeaconBlockRoot": "0x0000000000000000000000000000000000000000000000000000000000000000",
                    "hash": "0xa316cb5aafe2db5069b81725fae122d8172304c1c29f567a0f4165182e630f4b"
                },
                "engineNewPayload": {
                    "executionPayload": {
                        "parentHash": "0xa8119ef7c19a636435588e521d8f23fb1b3da056f9f451e401c8bbdfba94b2e0",
                        "feeRecipient": "0x2adc25665018aa1fe0e6bc666dac8fc2697ff9ba",
                        "stateRoot": "0x4b0e74fd9b5bafd86fdaa561ba5e9a34da124e5984aabc287bf09edc12b64e50",
                        "receiptsRoot": "0xc117ad0158b04d4277c8a0d1b440360bf3f011ad7caccf8740df472c96e8f5cc",
                        "logsBloom": "0x00000000000000000000000000000000000000000000000000000000000000000000000000000000000000000000000000000000000000000000000000000000000000000000000000000000000000000000000000000000000000000000000000000000000000000000000000000000000000000000000000000000000000000000000000000000000000000000000000000000000000000000000000000000000000000000000000000000000000000000000000000000000000000000000000000000000000000000000000000000000000000000000000000000000000000000000000000000000000000000000000000000000000000000000000000000",
                        "blockNumber": "0x1",
                        "gasLimit": "0x16345785d8a0000",
                        "gasUsed": "0xa861",
                        "timestamp": "0xc",
                        "extraData": "0x",
                        "prevRandao": "0x0000000000000000000000000000000000000000000000000000000000000000",
                        "baseFeePerGas": "0x7",
                        "blobGasUsed": "0x20000",
                        "excessBlobGas": "0xe0000",
                        "blockHash": "0xa316cb5aafe2db5069b81725fae122d8172304c1c29f567a0f4165182e630f4b",
                        "transactions": [
                            "0x03f886018080078307a1209400000000000000000000000000000000000001000180c001e1a0010000000000000000000000000000000000000000000000000000000000000001a08633745d9ccae895b1cd9b35473bf2c2f19230b32ebecf93fcf6e98e08868a7fa02df5e81e127ad763e99e70e134ea214d74d47e80787950b1959551c7b61f68ea"
                        ],
                        "withdrawals": []
                    },
                    "expectedBlobVersionedHashes": [
                        "0x0100000000000000000000000000000000000000000000000000000000000000"
                    ],
                    "version": "3",
                    "parentBeaconBlockRoot": "0x0000000000000000000000000000000000000000000000000000000000000000"
                },
                "blocknumber": "1",
                "transactions": [
                    {
                        "type": "0x03",
                        "chainId": "0x01",
                        "nonce": "0x00",
                        "maxPriorityFeePerGas": "0x00",
                        "maxFeePerGas": "0x07",
                        "gasLimit": "0x07a120",
                        "to": "0x0000000000000000000000000000000000000100",
                        "value": "0x01",
                        "data": "0x",
                        "accessList": [],
                        "maxFeePerBlobGas": "0x01",
                        "blobVersionedHashes": [
                            "0x0100000000000000000000000000000000000000000000000000000000000000"
                        ],
                        "v": "0x01",
                        "r": "0x8633745d9ccae895b1cd9b35473bf2c2f19230b32ebecf93fcf6e98e08868a7f",
                        "s": "0x2df5e81e127ad763e99e70e134ea214d74d47e80787950b1959551c7b61f68ea",
                        "sender": "0xa94f5374fce5edbc8e2a8697c15331677e6ebf0b"
                    }
                ],
                "uncleHeaders": [],
                "withdrawals": []
            }
        ],
        "genesisBlockHeader": {
            "parentHash": "0x0000000000000000000000000000000000000000000000000000000000000000",
            "uncleHash": "0x1dcc4de8dec75d7aab85b567b6ccd41ad312451b948a7413f0a142fd40d49347",
            "coinbase": "0x0000000000000000000000000000000000000000",
            "stateRoot": "0x63141bff6eef8c9de113d89cf534d7142b48fac4c85f2cf95041bd30ffebd611",
            "transactionsTrie": "0x56e81f171bcc55a6ff8345e692c0f86e5b48e01b996cadc001622fb5e363b421",
            "receiptTrie": "0x56e81f171bcc55a6ff8345e692c0f86e5b48e01b996cadc001622fb5e363b421",
            "bloom": "0x00000000000000000000000000000000000000000000000000000000000000000000000000000000000000000000000000000000000000000000000000000000000000000000000000000000000000000000000000000000000000000000000000000000000000000000000000000000000000000000000000000000000000000000000000000000000000000000000000000000000000000000000000000000000000000000000000000000000000000000000000000000000000000000000000000000000000000000000000000000000000000000000000000000000000000000000000000000000000000000000000000000000000000000000000000000",
            "difficulty": "0x00",
            "number": "0x00",
            "gasLimit": "0x016345785d8a0000",
            "gasUsed": "0x00",
            "timestamp": "0x00",
            "extraData": "0x00",
            "mixHash": "0x0000000000000000000000000000000000000000000000000000000000000000",
            "nonce": "0x0000000000000000",
            "baseFeePerGas": "0x07",
            "withdrawalsRoot": "0x56e81f171bcc55a6ff8345e692c0f86e5b48e01b996cadc001622fb5e363b421",
            "blobGasUsed": "0x00",
            "excessBlobGas": "0x140000",
            "parentBeaconBlockRoot": "0x0000000000000000000000000000000000000000000000000000000000000000",
            "hash": "0xa8119ef7c19a636435588e521d8f23fb1b3da056f9f451e401c8bbdfba94b2e0"
        },
        "genesisRLP": "0xf90243f9023da00000000000000000000000000000000000000000000000000000000000000000a01dcc4de8dec75d7aab85b567b6ccd41ad312451b948a7413f0a142fd40d49347940000000000000000000000000000000000000000a063141bff6eef8c9de113d89cf534d7142b48fac4c85f2cf95041bd30ffebd611a056e81f171bcc55a6ff8345e692c0f86e5b48e01b996cadc001622fb5e363b421a056e81f171bcc55a6ff8345e692c0f86e5b48e01b996cadc001622fb5e363b421b9010000000000000000000000000000000000000000000000000000000000000000000000000000000000000000000000000000000000000000000000000000000000000000000000000000000000000000000000000000000000000000000000000000000000000000000000000000000000000000000000000000000000000000000000000000000000000000000000000000000000000000000000000000000000000000000000000000000000000000000000000000000000000000000000000000000000000000000000000000000000000000000000000000000000000000000000000000000000000000000000000000000000000000000000000000000000808088016345785d8a0000808000a0000000000000000000000000000000000000000000000000000000000000000088000000000000000007a056e81f171bcc55a6ff8345e692c0f86e5b48e01b996cadc001622fb5e363b4218083140000a00000000000000000000000000000000000000000000000000000000000000000c0c0c0",
        "lastblockhash": "0xa316cb5aafe2db5069b81725fae122d8172304c1c29f567a0f4165182e630f4b",
        "network": "Cancun",
        "pre": {
            "0x000000000000000000000000000000000000000b": {
                "nonce": "0x01",
                "balance": "0x01",
                "code": "0x",
                "storage": {}
            },
            "0x0000000000000000000000000000000000000100": {
                "nonce": "0x00",
                "balance": "0x00",
                "code": "0x32600055",
                "storage": {}
            },
            "0xa94f5374fce5edbc8e2a8697c15331677e6ebf0b": {
                "nonce": "0x00",
                "balance": "0x3767e1",
                "code": "0x",
                "storage": {}
            }
        },
        "postState": {
            "0x000000000000000000000000000000000000000b": {
                "nonce": "0x01",
                "balance": "0x01",
                "code": "0x",
                "storage": {
                    "0x0c": "0x0c"
                }
            },
            "0x0000000000000000000000000000000000000100": {
                "nonce": "0x00",
                "balance": "0x01",
                "code": "0x32600055",
                "storage": {
                    "0x00": "0xa94f5374fce5edbc8e2a8697c15331677e6ebf0b"
                }
            },
            "0xa94f5374fce5edbc8e2a8697c15331677e6ebf0b": {
                "nonce": "0x01",
                "balance": "0x30cd39",
                "code": "0x",
                "storage": {}
            }
        },
        "sealEngine": "NoProof"
    },
    "001-fork=Cancun-tx_gas=500000-opcode=CALLER": {
        "_info": {
            "filling-transition-tool": "evm version 1.12.1-unstable-dc9e61da-20230801",
            "reference-spec": "https://github.com/ethereum/EIPs/blob/master/EIPS/eip-4844.md",
            "reference-spec-version": "f0eb6a364aaf5ccb43516fa2c269a54fb881ecfd"
        },
        "blocks": [
            {
                "rlp": "0xf902d4f90242a09462e47955f9babf7d7f03dedb4852699f762cd49d02f8532531f028c252eb4fa01dcc4de8dec75d7aab85b567b6ccd41ad312451b948a7413f0a142fd40d49347942adc25665018aa1fe0e6bc666dac8fc2697ff9baa07745c45c32fc177bce3e19f0867dfcea30cd015b17d67f7c489b2a241c84afdfa01f3581f26a0e6593c47b5d11210be45819176d1d04794911c1715d4840ab4875a0c117ad0158b04d4277c8a0d1b440360bf3f011ad7caccf8740df472c96e8f5ccb9010000000000000000000000000000000000000000000000000000000000000000000000000000000000000000000000000000000000000000000000000000000000000000000000000000000000000000000000000000000000000000000000000000000000000000000000000000000000000000000000000000000000000000000000000000000000000000000000000000000000000000000000000000000000000000000000000000000000000000000000000000000000000000000000000000000000000000000000000000000000000000000000000000000000000000000000000000000000000000000000000000000000000000000000000000000000800188016345785d8a000082a8610c80a0000000000000000000000000000000000000000000000000000000000000000088000000000000000007a056e81f171bcc55a6ff8345e692c0f86e5b48e01b996cadc001622fb5e363b42183020000830e0000a00000000000000000000000000000000000000000000000000000000000000000f88bb88903f886018080078307a1209400000000000000000000000000000000000001000180c001e1a0010000000000000000000000000000000000000000000000000000000000000001a08633745d9ccae895b1cd9b35473bf2c2f19230b32ebecf93fcf6e98e08868a7fa02df5e81e127ad763e99e70e134ea214d74d47e80787950b1959551c7b61f68eac0c0",
                "blockHeader": {
                    "parentHash": "0x9462e47955f9babf7d7f03dedb4852699f762cd49d02f8532531f028c252eb4f",
                    "uncleHash": "0x1dcc4de8dec75d7aab85b567b6ccd41ad312451b948a7413f0a142fd40d49347",
                    "coinbase": "0x2adc25665018aa1fe0e6bc666dac8fc2697ff9ba",
                    "stateRoot": "0x7745c45c32fc177bce3e19f0867dfcea30cd015b17d67f7c489b2a241c84afdf",
                    "transactionsTrie": "0x1f3581f26a0e6593c47b5d11210be45819176d1d04794911c1715d4840ab4875",
                    "receiptTrie": "0xc117ad0158b04d4277c8a0d1b440360bf3f011ad7caccf8740df472c96e8f5cc",
                    "bloom": "0x00000000000000000000000000000000000000000000000000000000000000000000000000000000000000000000000000000000000000000000000000000000000000000000000000000000000000000000000000000000000000000000000000000000000000000000000000000000000000000000000000000000000000000000000000000000000000000000000000000000000000000000000000000000000000000000000000000000000000000000000000000000000000000000000000000000000000000000000000000000000000000000000000000000000000000000000000000000000000000000000000000000000000000000000000000000",
                    "difficulty": "0x00",
                    "number": "0x01",
                    "gasLimit": "0x016345785d8a0000",
                    "gasUsed": "0xa861",
                    "timestamp": "0x0c",
                    "extraData": "0x",
                    "mixHash": "0x0000000000000000000000000000000000000000000000000000000000000000",
                    "nonce": "0x0000000000000000",
                    "baseFeePerGas": "0x07",
                    "withdrawalsRoot": "0x56e81f171bcc55a6ff8345e692c0f86e5b48e01b996cadc001622fb5e363b421",
                    "blobGasUsed": "0x020000",
                    "excessBlobGas": "0x0e0000",
                    "parentBeaconBlockRoot": "0x0000000000000000000000000000000000000000000000000000000000000000",
                    "hash": "0x90a791d0222afab49f32c3dcf3d7945e11109a560ca8b1643bf0c05a131da125"
                },
                "engineNewPayload": {
                    "executionPayload": {
                        "parentHash": "0x9462e47955f9babf7d7f03dedb4852699f762cd49d02f8532531f028c252eb4f",
                        "feeRecipient": "0x2adc25665018aa1fe0e6bc666dac8fc2697ff9ba",
                        "stateRoot": "0x7745c45c32fc177bce3e19f0867dfcea30cd015b17d67f7c489b2a241c84afdf",
                        "receiptsRoot": "0xc117ad0158b04d4277c8a0d1b440360bf3f011ad7caccf8740df472c96e8f5cc",
                        "logsBloom": "0x00000000000000000000000000000000000000000000000000000000000000000000000000000000000000000000000000000000000000000000000000000000000000000000000000000000000000000000000000000000000000000000000000000000000000000000000000000000000000000000000000000000000000000000000000000000000000000000000000000000000000000000000000000000000000000000000000000000000000000000000000000000000000000000000000000000000000000000000000000000000000000000000000000000000000000000000000000000000000000000000000000000000000000000000000000000",
                        "blockNumber": "0x1",
                        "gasLimit": "0x16345785d8a0000",
                        "gasUsed": "0xa861",
                        "timestamp": "0xc",
                        "extraData": "0x",
                        "prevRandao": "0x0000000000000000000000000000000000000000000000000000000000000000",
                        "baseFeePerGas": "0x7",
                        "blobGasUsed": "0x20000",
                        "excessBlobGas": "0xe0000",
                        "blockHash": "0x90a791d0222afab49f32c3dcf3d7945e11109a560ca8b1643bf0c05a131da125",
                        "transactions": [
                            "0x03f886018080078307a1209400000000000000000000000000000000000001000180c001e1a0010000000000000000000000000000000000000000000000000000000000000001a08633745d9ccae895b1cd9b35473bf2c2f19230b32ebecf93fcf6e98e08868a7fa02df5e81e127ad763e99e70e134ea214d74d47e80787950b1959551c7b61f68ea"
                        ],
                        "withdrawals": []
                    },
                    "expectedBlobVersionedHashes": [
                        "0x0100000000000000000000000000000000000000000000000000000000000000"
                    ],
                    "version": "3",
                    "parentBeaconBlockRoot": "0x0000000000000000000000000000000000000000000000000000000000000000"
                },
                "blocknumber": "1",
                "transactions": [
                    {
                        "type": "0x03",
                        "chainId": "0x01",
                        "nonce": "0x00",
                        "maxPriorityFeePerGas": "0x00",
                        "maxFeePerGas": "0x07",
                        "gasLimit": "0x07a120",
                        "to": "0x0000000000000000000000000000000000000100",
                        "value": "0x01",
                        "data": "0x",
                        "accessList": [],
                        "maxFeePerBlobGas": "0x01",
                        "blobVersionedHashes": [
                            "0x0100000000000000000000000000000000000000000000000000000000000000"
                        ],
                        "v": "0x01",
                        "r": "0x8633745d9ccae895b1cd9b35473bf2c2f19230b32ebecf93fcf6e98e08868a7f",
                        "s": "0x2df5e81e127ad763e99e70e134ea214d74d47e80787950b1959551c7b61f68ea",
                        "sender": "0xa94f5374fce5edbc8e2a8697c15331677e6ebf0b"
                    }
                ],
                "uncleHeaders": [],
                "withdrawals": []
            }
        ],
        "genesisBlockHeader": {
            "parentHash": "0x0000000000000000000000000000000000000000000000000000000000000000",
            "uncleHash": "0x1dcc4de8dec75d7aab85b567b6ccd41ad312451b948a7413f0a142fd40d49347",
            "coinbase": "0x0000000000000000000000000000000000000000",
            "stateRoot": "0xd98c9f4efabe75395726d828083fecb9f392a1298cc2d3fba57a10e7d73ef189",
            "transactionsTrie": "0x56e81f171bcc55a6ff8345e692c0f86e5b48e01b996cadc001622fb5e363b421",
            "receiptTrie": "0x56e81f171bcc55a6ff8345e692c0f86e5b48e01b996cadc001622fb5e363b421",
            "bloom": "0x00000000000000000000000000000000000000000000000000000000000000000000000000000000000000000000000000000000000000000000000000000000000000000000000000000000000000000000000000000000000000000000000000000000000000000000000000000000000000000000000000000000000000000000000000000000000000000000000000000000000000000000000000000000000000000000000000000000000000000000000000000000000000000000000000000000000000000000000000000000000000000000000000000000000000000000000000000000000000000000000000000000000000000000000000000000",
            "difficulty": "0x00",
            "number": "0x00",
            "gasLimit": "0x016345785d8a0000",
            "gasUsed": "0x00",
            "timestamp": "0x00",
            "extraData": "0x00",
            "mixHash": "0x0000000000000000000000000000000000000000000000000000000000000000",
            "nonce": "0x0000000000000000",
            "baseFeePerGas": "0x07",
            "withdrawalsRoot": "0x56e81f171bcc55a6ff8345e692c0f86e5b48e01b996cadc001622fb5e363b421",
            "blobGasUsed": "0x00",
            "excessBlobGas": "0x140000",
            "parentBeaconBlockRoot": "0x0000000000000000000000000000000000000000000000000000000000000000",
            "hash": "0x9462e47955f9babf7d7f03dedb4852699f762cd49d02f8532531f028c252eb4f"
        },
        "genesisRLP": "0xf90243f9023da00000000000000000000000000000000000000000000000000000000000000000a01dcc4de8dec75d7aab85b567b6ccd41ad312451b948a7413f0a142fd40d49347940000000000000000000000000000000000000000a0d98c9f4efabe75395726d828083fecb9f392a1298cc2d3fba57a10e7d73ef189a056e81f171bcc55a6ff8345e692c0f86e5b48e01b996cadc001622fb5e363b421a056e81f171bcc55a6ff8345e692c0f86e5b48e01b996cadc001622fb5e363b421b9010000000000000000000000000000000000000000000000000000000000000000000000000000000000000000000000000000000000000000000000000000000000000000000000000000000000000000000000000000000000000000000000000000000000000000000000000000000000000000000000000000000000000000000000000000000000000000000000000000000000000000000000000000000000000000000000000000000000000000000000000000000000000000000000000000000000000000000000000000000000000000000000000000000000000000000000000000000000000000000000000000000000000000000000000000000000808088016345785d8a0000808000a0000000000000000000000000000000000000000000000000000000000000000088000000000000000007a056e81f171bcc55a6ff8345e692c0f86e5b48e01b996cadc001622fb5e363b4218083140000a00000000000000000000000000000000000000000000000000000000000000000c0c0c0",
        "lastblockhash": "0x90a791d0222afab49f32c3dcf3d7945e11109a560ca8b1643bf0c05a131da125",
        "network": "Cancun",
        "pre": {
            "0x000000000000000000000000000000000000000b": {
                "nonce": "0x01",
                "balance": "0x01",
                "code": "0x",
                "storage": {}
            },
            "0x0000000000000000000000000000000000000100": {
                "nonce": "0x00",
                "balance": "0x00",
                "code": "0x33600055",
                "storage": {}
            },
            "0xa94f5374fce5edbc8e2a8697c15331677e6ebf0b": {
                "nonce": "0x00",
                "balance": "0x3767e1",
                "code": "0x",
                "storage": {}
            }
        },
        "postState": {
            "0x000000000000000000000000000000000000000b": {
                "nonce": "0x01",
                "balance": "0x01",
                "code": "0x",
                "storage": {
                    "0x0c": "0x0c"
                }
            },
            "0x0000000000000000000000000000000000000100": {
                "nonce": "0x00",
                "balance": "0x01",
                "code": "0x33600055",
                "storage": {
                    "0x00": "0xa94f5374fce5edbc8e2a8697c15331677e6ebf0b"
                }
            },
            "0xa94f5374fce5edbc8e2a8697c15331677e6ebf0b": {
                "nonce": "0x01",
                "balance": "0x30cd39",
                "code": "0x",
                "storage": {}
            }
        },
        "sealEngine": "NoProof"
    }
}