{
    "000-fork=Cancun-insufficient_max_fee_per_gas": {
        "_info": {
            "filling-transition-tool": "evm version 1.12.1-unstable-dc9e61da-20230801",
            "reference-spec": "https://github.com/ethereum/EIPs/blob/master/EIPS/eip-4844.md",
            "reference-spec-version": "f0eb6a364aaf5ccb43516fa2c269a54fb881ecfd"
        },
        "blocks": [
            {
                "rlp": "0xf902d1f90240a0c5bb38d93b36d7f3642730369339ec9ab3458d62795991c6432bddcf6e487446a01dcc4de8dec75d7aab85b567b6ccd41ad312451b948a7413f0a142fd40d49347942adc25665018aa1fe0e6bc666dac8fc2697ff9baa025fadd9b3877a2ccb811cb28d9a7cb0eeaa918fd9a59f644b64569737632a922a056e81f171bcc55a6ff8345e692c0f86e5b48e01b996cadc001622fb5e363b421a056e81f171bcc55a6ff8345e692c0f86e5b48e01b996cadc001622fb5e363b421b9010000000000000000000000000000000000000000000000000000000000000000000000000000000000000000000000000000000000000000000000000000000000000000000000000000000000000000000000000000000000000000000000000000000000000000000000000000000000000000000000000000000000000000000000000000000000000000000000000000000000000000000000000000000000000000000000000000000000000000000000000000000000000000000000000000000000000000000000000000000000000000000000000000000000000000000000000000000000000000000000000000000000000000000000000000000000800188016345785d8a0000800c80a0000000000000000000000000000000000000000000000000000000000000000088000000000000000007a056e81f171bcc55a6ff8345e692c0f86e5b48e01b996cadc001622fb5e363b42183020000830e0000a00000000000000000000000000000000000000000000000000000000000000000f88ab88803f885018080068252089400000000000000000000000000000000000001000180c001e1a0010000000000000000000000000000000000000000000000000000000000000080a0addeb69c5295c1ddd6fb930596ee852996564ce896acc1f69a226f6e440482bca07ba3ff1923416d370a26e28d364d2186ab2c3bf3d0094919b13b64d77c9879f2c0c0",
                "engineNewPayload": {
                    "executionPayload": {
                        "parentHash": "0xc5bb38d93b36d7f3642730369339ec9ab3458d62795991c6432bddcf6e487446",
                        "feeRecipient": "0x2adc25665018aa1fe0e6bc666dac8fc2697ff9ba",
                        "stateRoot": "0x25fadd9b3877a2ccb811cb28d9a7cb0eeaa918fd9a59f644b64569737632a922",
                        "receiptsRoot": "0x56e81f171bcc55a6ff8345e692c0f86e5b48e01b996cadc001622fb5e363b421",
                        "logsBloom": "0x00000000000000000000000000000000000000000000000000000000000000000000000000000000000000000000000000000000000000000000000000000000000000000000000000000000000000000000000000000000000000000000000000000000000000000000000000000000000000000000000000000000000000000000000000000000000000000000000000000000000000000000000000000000000000000000000000000000000000000000000000000000000000000000000000000000000000000000000000000000000000000000000000000000000000000000000000000000000000000000000000000000000000000000000000000000",
                        "blockNumber": "0x1",
                        "gasLimit": "0x16345785d8a0000",
                        "gasUsed": "0x0",
                        "timestamp": "0xc",
                        "extraData": "0x",
                        "prevRandao": "0x0000000000000000000000000000000000000000000000000000000000000000",
                        "baseFeePerGas": "0x7",
                        "blobGasUsed": "0x20000",
                        "excessBlobGas": "0xe0000",
                        "blockHash": "0xb8887aff6c1f0285511fdecc82c4a5442db037d47138342a2179ce9723361b29",
                        "transactions": [
                            "0x03f885018080068252089400000000000000000000000000000000000001000180c001e1a0010000000000000000000000000000000000000000000000000000000000000080a0addeb69c5295c1ddd6fb930596ee852996564ce896acc1f69a226f6e440482bca07ba3ff1923416d370a26e28d364d2186ab2c3bf3d0094919b13b64d77c9879f2"
                        ],
                        "withdrawals": []
                    },
                    "expectedBlobVersionedHashes": [
                        "0x0100000000000000000000000000000000000000000000000000000000000000"
                    ],
                    "version": "3",
                    "parentBeaconBlockRoot": "0x0000000000000000000000000000000000000000000000000000000000000000"
                },
                "expectException": "insufficient max fee per gas",
                "blocknumber": "1"
            }
        ],
        "genesisBlockHeader": {
            "parentHash": "0x0000000000000000000000000000000000000000000000000000000000000000",
            "uncleHash": "0x1dcc4de8dec75d7aab85b567b6ccd41ad312451b948a7413f0a142fd40d49347",
            "coinbase": "0x0000000000000000000000000000000000000000",
            "stateRoot": "0x41f70beab1ab086913c75b54e002af465ea762aa636bad3b413245f59cafb80b",
            "transactionsTrie": "0x56e81f171bcc55a6ff8345e692c0f86e5b48e01b996cadc001622fb5e363b421",
            "receiptTrie": "0x56e81f171bcc55a6ff8345e692c0f86e5b48e01b996cadc001622fb5e363b421",
            "bloom": "0x00000000000000000000000000000000000000000000000000000000000000000000000000000000000000000000000000000000000000000000000000000000000000000000000000000000000000000000000000000000000000000000000000000000000000000000000000000000000000000000000000000000000000000000000000000000000000000000000000000000000000000000000000000000000000000000000000000000000000000000000000000000000000000000000000000000000000000000000000000000000000000000000000000000000000000000000000000000000000000000000000000000000000000000000000000000",
            "difficulty": "0x00",
            "number": "0x00",
            "gasLimit": "0x016345785d8a0000",
            "gasUsed": "0x00",
            "timestamp": "0x00",
            "extraData": "0x00",
            "mixHash": "0x0000000000000000000000000000000000000000000000000000000000000000",
            "nonce": "0x0000000000000000",
            "baseFeePerGas": "0x07",
            "withdrawalsRoot": "0x56e81f171bcc55a6ff8345e692c0f86e5b48e01b996cadc001622fb5e363b421",
            "blobGasUsed": "0x00",
            "excessBlobGas": "0x140000",
            "parentBeaconBlockRoot": "0x0000000000000000000000000000000000000000000000000000000000000000",
            "hash": "0xc5bb38d93b36d7f3642730369339ec9ab3458d62795991c6432bddcf6e487446"
        },
        "genesisRLP": "0xf90243f9023da00000000000000000000000000000000000000000000000000000000000000000a01dcc4de8dec75d7aab85b567b6ccd41ad312451b948a7413f0a142fd40d49347940000000000000000000000000000000000000000a041f70beab1ab086913c75b54e002af465ea762aa636bad3b413245f59cafb80ba056e81f171bcc55a6ff8345e692c0f86e5b48e01b996cadc001622fb5e363b421a056e81f171bcc55a6ff8345e692c0f86e5b48e01b996cadc001622fb5e363b421b9010000000000000000000000000000000000000000000000000000000000000000000000000000000000000000000000000000000000000000000000000000000000000000000000000000000000000000000000000000000000000000000000000000000000000000000000000000000000000000000000000000000000000000000000000000000000000000000000000000000000000000000000000000000000000000000000000000000000000000000000000000000000000000000000000000000000000000000000000000000000000000000000000000000000000000000000000000000000000000000000000000000000000000000000000000000000808088016345785d8a0000808000a0000000000000000000000000000000000000000000000000000000000000000088000000000000000007a056e81f171bcc55a6ff8345e692c0f86e5b48e01b996cadc001622fb5e363b4218083140000a00000000000000000000000000000000000000000000000000000000000000000c0c0c0",
        "lastblockhash": "0xc5bb38d93b36d7f3642730369339ec9ab3458d62795991c6432bddcf6e487446",
        "network": "Cancun",
        "pre": {
            "0x000000000000000000000000000000000000000b": {
                "nonce": "0x01",
                "balance": "0x01",
                "code": "0x",
                "storage": {}
            },
            "0xa94f5374fce5edbc8e2a8697c15331677e6ebf0b": {
                "nonce": "0x00",
                "balance": "0x03ec31",
                "code": "0x",
                "storage": {}
            }
        },
        "postState": {
            "0x000000000000000000000000000000000000000b": {
                "nonce": "0x01",
                "balance": "0x01",
                "code": "0x",
                "storage": {}
            },
            "0xa94f5374fce5edbc8e2a8697c15331677e6ebf0b": {
                "nonce": "0x00",
                "balance": "0x03ec31",
                "code": "0x",
                "storage": {}
            }
        },
        "sealEngine": "NoProof"
    }
}