{
    "000-fork=Cancun-success=True-in_bounds_z": {
        "_info": {
            "filling-transition-tool": "evm version 1.12.1-unstable-7f86fd5b-20230731",
            "reference-spec": "https://github.com/ethereum/EIPs/blob/master/EIPS/eip-4844.md",
            "reference-spec-version": "f0eb6a364aaf5ccb43516fa2c269a54fb881ecfd"
        },
        "blocks": [
            {
                "rlp": "0xf90370f9023da0a9234dcc0e8e2da319cae8e3d86c4f2ff4559ae5055d45245b2030bf721419c7a01dcc4de8dec75d7aab85b567b6ccd41ad312451b948a7413f0a142fd40d49347942adc25665018aa1fe0e6bc666dac8fc2697ff9baa072ce5b9b81ced478282afd72186e77ce502016c3421c25623aa5a3987f9d6d66a023c2e283739049651d077fdfc364eb7d4e6f26c0eb394e58898f13fd4823519ca007194d446d05e8c42fac0ab572a81e5572a2dbd57e309129ed37cfff436b5affb9010000000000000000000000000000000000000000000000000000000000000000000000000000000000000000000000000000000000000000000000000000000000000000000000000000000000000000000000000000000000000000000000000000000000000000000000000000000000000000000000000000000000000000000000000000000000000000000000000000000000000000000000000000000000000000000000000000000000000000000000000000000000000000000000000000000000000000000000000000000000000000000000000000000000000000000000000000000000000000000000000000000000000000000000000000000000800188016345785d8a00008303221c0c80a0000000000000000000000000000000000000000000000000000000000000000088000000000000000007a056e81f171bcc55a6ff8345e692c0f86e5b48e01b996cadc001622fb5e363b4218080a00000000000000000000000000000000000000000000000000000000000000000f9012bb9012802f9012401808007830f424094000000000000000000000000000000000000010080b8c0010657f37554c781402a22917dee2f75def7ab966d7b770905398eba3c44401473eda753299d7d483339d80809a1d80553bda402fffe5bfeffffffff000000000000000000000000000000000000000000000000000000000000000000000000c00000000000000000000000000000000000000000000000000000000000000000000000000000000000000000000000c00000000000000000000000000000000000000000000000000000000000000000000000000000000000000000000000c080a0cdcb82e08bcb8bb0eb6de7c1e142a910aa413891c9deeccd0c650737f5407307a06df091d7bdd64b38d24910e969040afa2f65abd8b0ddf8c42ce5e582edfcf4fec0c0",
                "blockHeader": {
                    "parentHash": "0xa9234dcc0e8e2da319cae8e3d86c4f2ff4559ae5055d45245b2030bf721419c7",
                    "uncleHash": "0x1dcc4de8dec75d7aab85b567b6ccd41ad312451b948a7413f0a142fd40d49347",
                    "coinbase": "0x2adc25665018aa1fe0e6bc666dac8fc2697ff9ba",
                    "stateRoot": "0x72ce5b9b81ced478282afd72186e77ce502016c3421c25623aa5a3987f9d6d66",
                    "transactionsTrie": "0x23c2e283739049651d077fdfc364eb7d4e6f26c0eb394e58898f13fd4823519c",
                    "receiptTrie": "0x07194d446d05e8c42fac0ab572a81e5572a2dbd57e309129ed37cfff436b5aff",
                    "bloom": "0x00000000000000000000000000000000000000000000000000000000000000000000000000000000000000000000000000000000000000000000000000000000000000000000000000000000000000000000000000000000000000000000000000000000000000000000000000000000000000000000000000000000000000000000000000000000000000000000000000000000000000000000000000000000000000000000000000000000000000000000000000000000000000000000000000000000000000000000000000000000000000000000000000000000000000000000000000000000000000000000000000000000000000000000000000000000",
                    "difficulty": "0x00",
                    "number": "0x01",
                    "gasLimit": "0x016345785d8a0000",
                    "gasUsed": "0x03221c",
                    "timestamp": "0x0c",
                    "extraData": "0x",
                    "mixHash": "0x0000000000000000000000000000000000000000000000000000000000000000",
                    "nonce": "0x0000000000000000",
                    "baseFeePerGas": "0x07",
                    "withdrawalsRoot": "0x56e81f171bcc55a6ff8345e692c0f86e5b48e01b996cadc001622fb5e363b421",
                    "blobGasUsed": "0x00",
                    "excessBlobGas": "0x00",
                    "beaconRoot": "0x0000000000000000000000000000000000000000000000000000000000000000",
                    "hash": "0xcc6187b667e9f2a3bf21fe6d86cd6d2bedb809c3fdccb99e5b4c95d7d65fa8b9"
                },
                "engineNewPayload": {
                    "executionPayload": {
                        "parentHash": "0xa9234dcc0e8e2da319cae8e3d86c4f2ff4559ae5055d45245b2030bf721419c7",
                        "feeRecipient": "0x2adc25665018aa1fe0e6bc666dac8fc2697ff9ba",
                        "stateRoot": "0x72ce5b9b81ced478282afd72186e77ce502016c3421c25623aa5a3987f9d6d66",
                        "receiptsRoot": "0x07194d446d05e8c42fac0ab572a81e5572a2dbd57e309129ed37cfff436b5aff",
                        "logsBloom": "0x00000000000000000000000000000000000000000000000000000000000000000000000000000000000000000000000000000000000000000000000000000000000000000000000000000000000000000000000000000000000000000000000000000000000000000000000000000000000000000000000000000000000000000000000000000000000000000000000000000000000000000000000000000000000000000000000000000000000000000000000000000000000000000000000000000000000000000000000000000000000000000000000000000000000000000000000000000000000000000000000000000000000000000000000000000000",
                        "blockNumber": "0x1",
                        "gasLimit": "0x16345785d8a0000",
                        "gasUsed": "0x3221c",
                        "timestamp": "0xc",
                        "extraData": "0x",
                        "prevRandao": "0x0000000000000000000000000000000000000000000000000000000000000000",
                        "baseFeePerGas": "0x7",
                        "blobGasUsed": "0x0",
                        "excessBlobGas": "0x0",
                        "blockHash": "0xcc6187b667e9f2a3bf21fe6d86cd6d2bedb809c3fdccb99e5b4c95d7d65fa8b9",
                        "transactions": [
                            "0x02f9012401808007830f424094000000000000000000000000000000000000010080b8c0010657f37554c781402a22917dee2f75def7ab966d7b770905398eba3c44401473eda753299d7d483339d80809a1d80553bda402fffe5bfeffffffff000000000000000000000000000000000000000000000000000000000000000000000000c00000000000000000000000000000000000000000000000000000000000000000000000000000000000000000000000c00000000000000000000000000000000000000000000000000000000000000000000000000000000000000000000000c080a0cdcb82e08bcb8bb0eb6de7c1e142a910aa413891c9deeccd0c650737f5407307a06df091d7bdd64b38d24910e969040afa2f65abd8b0ddf8c42ce5e582edfcf4fe"
                        ],
                        "withdrawals": []
                    },
                    "expectedBlobVersionedHashes": [],
                    "version": "3",
                    "parentBeaconBlockRoot": "0x0000000000000000000000000000000000000000000000000000000000000000"
                },
                "blocknumber": "1",
                "transactions": [
                    {
                        "type": "0x02",
                        "chainId": "0x01",
                        "nonce": "0x00",
                        "maxPriorityFeePerGas": "0x00",
                        "maxFeePerGas": "0x07",
                        "gasLimit": "0x0f4240",
                        "to": "0x0000000000000000000000000000000000000100",
                        "value": "0x00",
                        "data": "0x010657f37554c781402a22917dee2f75def7ab966d7b770905398eba3c44401473eda753299d7d483339d80809a1d80553bda402fffe5bfeffffffff000000000000000000000000000000000000000000000000000000000000000000000000c00000000000000000000000000000000000000000000000000000000000000000000000000000000000000000000000c00000000000000000000000000000000000000000000000000000000000000000000000000000000000000000000000",
                        "accessList": [],
                        "v": "0x00",
                        "r": "0xcdcb82e08bcb8bb0eb6de7c1e142a910aa413891c9deeccd0c650737f5407307",
                        "s": "0x6df091d7bdd64b38d24910e969040afa2f65abd8b0ddf8c42ce5e582edfcf4fe",
                        "sender": "0xa94f5374fce5edbc8e2a8697c15331677e6ebf0b"
                    }
                ],
                "uncleHeaders": [],
                "withdrawals": []
            }
        ],
        "genesisBlockHeader": {
            "parentHash": "0x0000000000000000000000000000000000000000000000000000000000000000",
            "uncleHash": "0x1dcc4de8dec75d7aab85b567b6ccd41ad312451b948a7413f0a142fd40d49347",
            "coinbase": "0x0000000000000000000000000000000000000000",
            "stateRoot": "0x984b9a7ef4608d7c4e3bdb67165c62f4daea66e4aeb04f9ed159e429345b3928",
            "transactionsTrie": "0x56e81f171bcc55a6ff8345e692c0f86e5b48e01b996cadc001622fb5e363b421",
            "receiptTrie": "0x56e81f171bcc55a6ff8345e692c0f86e5b48e01b996cadc001622fb5e363b421",
            "bloom": "0x00000000000000000000000000000000000000000000000000000000000000000000000000000000000000000000000000000000000000000000000000000000000000000000000000000000000000000000000000000000000000000000000000000000000000000000000000000000000000000000000000000000000000000000000000000000000000000000000000000000000000000000000000000000000000000000000000000000000000000000000000000000000000000000000000000000000000000000000000000000000000000000000000000000000000000000000000000000000000000000000000000000000000000000000000000000",
            "difficulty": "0x00",
            "number": "0x00",
            "gasLimit": "0x016345785d8a0000",
            "gasUsed": "0x00",
            "timestamp": "0x00",
            "extraData": "0x00",
            "mixHash": "0x0000000000000000000000000000000000000000000000000000000000000000",
            "nonce": "0x0000000000000000",
            "baseFeePerGas": "0x07",
            "withdrawalsRoot": "0x56e81f171bcc55a6ff8345e692c0f86e5b48e01b996cadc001622fb5e363b421",
            "blobGasUsed": "0x00",
            "excessBlobGas": "0x00",
            "beaconRoot": "0x0000000000000000000000000000000000000000000000000000000000000000",
            "hash": "0xa9234dcc0e8e2da319cae8e3d86c4f2ff4559ae5055d45245b2030bf721419c7"
        },
        "genesisRLP": "0xf90240f9023aa00000000000000000000000000000000000000000000000000000000000000000a01dcc4de8dec75d7aab85b567b6ccd41ad312451b948a7413f0a142fd40d49347940000000000000000000000000000000000000000a0984b9a7ef4608d7c4e3bdb67165c62f4daea66e4aeb04f9ed159e429345b3928a056e81f171bcc55a6ff8345e692c0f86e5b48e01b996cadc001622fb5e363b421a056e81f171bcc55a6ff8345e692c0f86e5b48e01b996cadc001622fb5e363b421b9010000000000000000000000000000000000000000000000000000000000000000000000000000000000000000000000000000000000000000000000000000000000000000000000000000000000000000000000000000000000000000000000000000000000000000000000000000000000000000000000000000000000000000000000000000000000000000000000000000000000000000000000000000000000000000000000000000000000000000000000000000000000000000000000000000000000000000000000000000000000000000000000000000000000000000000000000000000000000000000000000000000000000000000000000000000000808088016345785d8a0000808000a0000000000000000000000000000000000000000000000000000000000000000088000000000000000007a056e81f171bcc55a6ff8345e692c0f86e5b48e01b996cadc001622fb5e363b4218080a00000000000000000000000000000000000000000000000000000000000000000c0c0c0",
        "lastblockhash": "0xcc6187b667e9f2a3bf21fe6d86cd6d2bedb809c3fdccb99e5b4c95d7d65fa8b9",
        "network": "Cancun",
        "pre": {
            "0x000000000000000000000000000000000000000b": {
                "nonce": "0x00",
                "balance": "0x01",
                "code": "0x",
                "storage": {}
            },
            "0xa94f5374fce5edbc8e2a8697c15331677e6ebf0b": {
                "nonce": "0x00",
                "balance": "0x01000000000000000000",
                "code": "0x",
                "storage": {}
            },
            "0x0000000000000000000000000000000000000100": {
                "nonce": "0x00",
                "balance": "0x01000000000000000000",
                "code": "0x366000600037604060003660006000600a61c350f16000556000516001556020516002553d6003553d600060003e600051600455602051600555",
                "storage": {}
            }
        },
        "postState": {
            "0x000000000000000000000000000000000000000b": {
                "nonce": "0x00",
                "balance": "0x01",
                "code": "0x",
                "storage": {
                    "0x0c": "0x0c"
                }
            },
            "0x0000000000000000000000000000000000000100": {
                "nonce": "0x00",
                "balance": "0x01000000000000000000",
                "code": "0x366000600037604060003660006000600a61c350f16000556000516001556020516002553d6003553d600060003e600051600455602051600555",
                "storage": {
                    "0x00": "0x01",
                    "0x01": "0x1000",
                    "0x02": "0x73eda753299d7d483339d80809a1d80553bda402fffe5bfeffffffff00000001",
                    "0x03": "0x40",
                    "0x04": "0x1000",
                    "0x05": "0x73eda753299d7d483339d80809a1d80553bda402fffe5bfeffffffff00000001"
                }
            },
            "0xa94f5374fce5edbc8e2a8697c15331677e6ebf0b": {
                "nonce": "0x01",
                "balance": "0xffffffffffffea113c",
                "code": "0x",
                "storage": {}
            }
        },
        "sealEngine": "NoProof"
    }
}