{
    "000-fork=Cancun-timestamp=12-valid_input=True": {
        "_info": {
            "filling-transition-tool": "evm version 1.12.1-unstable-7f86fd5b-20230731",
            "reference-spec": "https://github.com/ethereum/EIPs/blob/master/EIPS/eip-4788.md",
            "reference-spec-version": "f0eb6a364aaf5ccb43516fa2c269a54fb881ecfd"
        },
        "blocks": [
            {
                "rlp": "0xf902ccf9023da092f8eed52528a84be053fcb3acd4ee48530d57647c9c7ebe70a9e2be7baade3ca01dcc4de8dec75d7aab85b567b6ccd41ad312451b948a7413f0a142fd40d49347942adc25665018aa1fe0e6bc666dac8fc2697ff9baa06e38b02eb8e88ec65ad5679223003e9c5cecb78e6b05ce7be98c4a8c9adb3961a07d98be72f9136e95c03dd194c12ac10b3bd8a1d92997c22c25b49a3b734e9adaa0ec150835a95e5ae49ea1f60e84a9158f6b05ff9acc2f7ce4218d5077216db323b9010000000000000000000000000000000000000000000000000000000000000000000000000000000000000000000000000000000000000000000000000000000000000000000000000000000000000000000000000000000000000000000000000000000000000000000000000000000000000000000000000000000000000000000000000000000000000000000000000000000000000000000000000000000000000000000000000000000000000000000000000000000000000000000000000000000000000000000000000000000000000000000000000000000000000000000000000000000000000000000000000000000000000000000000000000000000800188016345785d8a00008301bcfd0c00a0000000000000000000000000000000000000000000000000000000000000000088000000000000000007a056e81f171bcc55a6ff8345e692c0f86e5b48e01b996cadc001622fb5e363b4218080a03e97e493f9123f7455a3be1b388db32876beea7d165a3b63528d8f9a38b7249ff888b88602f88301808007830f424094000000000000000000000000000000000000010080a0000000000000000000000000000000000000000000000000000000000000000cc080a09def14c251e6d0b857c40d13f8bd358608277d2c90cb2340ac4fe75cbe35f445a05cd757be2f85dd0560322bd54d04199a371c950a83e4706b7f8e2840dbdc01ebc0c0",
                "blockHeader": {
                    "parentHash": "0x92f8eed52528a84be053fcb3acd4ee48530d57647c9c7ebe70a9e2be7baade3c",
                    "uncleHash": "0x1dcc4de8dec75d7aab85b567b6ccd41ad312451b948a7413f0a142fd40d49347",
                    "coinbase": "0x2adc25665018aa1fe0e6bc666dac8fc2697ff9ba",
                    "stateRoot": "0x6e38b02eb8e88ec65ad5679223003e9c5cecb78e6b05ce7be98c4a8c9adb3961",
                    "transactionsTrie": "0x7d98be72f9136e95c03dd194c12ac10b3bd8a1d92997c22c25b49a3b734e9ada",
                    "receiptTrie": "0xec150835a95e5ae49ea1f60e84a9158f6b05ff9acc2f7ce4218d5077216db323",
                    "bloom": "0x00000000000000000000000000000000000000000000000000000000000000000000000000000000000000000000000000000000000000000000000000000000000000000000000000000000000000000000000000000000000000000000000000000000000000000000000000000000000000000000000000000000000000000000000000000000000000000000000000000000000000000000000000000000000000000000000000000000000000000000000000000000000000000000000000000000000000000000000000000000000000000000000000000000000000000000000000000000000000000000000000000000000000000000000000000000",
                    "difficulty": "0x00",
                    "number": "0x01",
                    "gasLimit": "0x016345785d8a0000",
                    "gasUsed": "0x01bcfd",
                    "timestamp": "0x0c",
                    "extraData": "0x00",
                    "mixHash": "0x0000000000000000000000000000000000000000000000000000000000000000",
                    "nonce": "0x0000000000000000",
                    "baseFeePerGas": "0x07",
                    "withdrawalsRoot": "0x56e81f171bcc55a6ff8345e692c0f86e5b48e01b996cadc001622fb5e363b421",
                    "blobGasUsed": "0x00",
                    "excessBlobGas": "0x00",
                    "beaconRoot": "0x3e97e493f9123f7455a3be1b388db32876beea7d165a3b63528d8f9a38b7249f",
                    "hash": "0x395670e1cfd66a86a2c8634f0c0ea673a7ae2d8cd23d50f02b503ef75e0b722c"
                },
                "engineNewPayload": {
                    "executionPayload": {
                        "parentHash": "0x92f8eed52528a84be053fcb3acd4ee48530d57647c9c7ebe70a9e2be7baade3c",
                        "feeRecipient": "0x2adc25665018aa1fe0e6bc666dac8fc2697ff9ba",
                        "stateRoot": "0x6e38b02eb8e88ec65ad5679223003e9c5cecb78e6b05ce7be98c4a8c9adb3961",
                        "receiptsRoot": "0xec150835a95e5ae49ea1f60e84a9158f6b05ff9acc2f7ce4218d5077216db323",
                        "logsBloom": "0x00000000000000000000000000000000000000000000000000000000000000000000000000000000000000000000000000000000000000000000000000000000000000000000000000000000000000000000000000000000000000000000000000000000000000000000000000000000000000000000000000000000000000000000000000000000000000000000000000000000000000000000000000000000000000000000000000000000000000000000000000000000000000000000000000000000000000000000000000000000000000000000000000000000000000000000000000000000000000000000000000000000000000000000000000000000",
                        "blockNumber": "0x1",
                        "gasLimit": "0x16345785d8a0000",
                        "gasUsed": "0x1bcfd",
                        "timestamp": "0xc",
                        "extraData": "0x00",
                        "prevRandao": "0x0000000000000000000000000000000000000000000000000000000000000000",
                        "baseFeePerGas": "0x7",
                        "blobGasUsed": "0x0",
                        "excessBlobGas": "0x0",
                        "blockHash": "0x395670e1cfd66a86a2c8634f0c0ea673a7ae2d8cd23d50f02b503ef75e0b722c",
                        "transactions": [
                            "0x02f88301808007830f424094000000000000000000000000000000000000010080a0000000000000000000000000000000000000000000000000000000000000000cc080a09def14c251e6d0b857c40d13f8bd358608277d2c90cb2340ac4fe75cbe35f445a05cd757be2f85dd0560322bd54d04199a371c950a83e4706b7f8e2840dbdc01eb"
                        ],
                        "withdrawals": []
                    },
                    "expectedBlobVersionedHashes": [],
                    "version": "3",
                    "parentBeaconBlockRoot": "0x3e97e493f9123f7455a3be1b388db32876beea7d165a3b63528d8f9a38b7249f"
                },
                "transactions": [
                    {
                        "type": "0x02",
                        "chainId": "0x01",
                        "nonce": "0x00",
                        "maxPriorityFeePerGas": "0x00",
                        "maxFeePerGas": "0x07",
                        "gasLimit": "0x0f4240",
                        "to": "0x0000000000000000000000000000000000000100",
                        "value": "0x00",
                        "data": "0x000000000000000000000000000000000000000000000000000000000000000c",
                        "accessList": [],
                        "v": "0x00",
                        "r": "0x9def14c251e6d0b857c40d13f8bd358608277d2c90cb2340ac4fe75cbe35f445",
                        "s": "0x5cd757be2f85dd0560322bd54d04199a371c950a83e4706b7f8e2840dbdc01eb",
                        "sender": "0xa94f5374fce5edbc8e2a8697c15331677e6ebf0b"
                    }
                ],
                "uncleHeaders": [],
                "withdrawals": []
            }
        ],
        "genesisBlockHeader": {
            "parentHash": "0x0000000000000000000000000000000000000000000000000000000000000000",
            "uncleHash": "0x1dcc4de8dec75d7aab85b567b6ccd41ad312451b948a7413f0a142fd40d49347",
            "coinbase": "0x0000000000000000000000000000000000000000",
            "stateRoot": "0x4e6744d90f67d7ea491ebd4273e9c5eca2a06a278d80e57135cc556cbb8c8f92",
            "transactionsTrie": "0x56e81f171bcc55a6ff8345e692c0f86e5b48e01b996cadc001622fb5e363b421",
            "receiptTrie": "0x56e81f171bcc55a6ff8345e692c0f86e5b48e01b996cadc001622fb5e363b421",
            "bloom": "0x00000000000000000000000000000000000000000000000000000000000000000000000000000000000000000000000000000000000000000000000000000000000000000000000000000000000000000000000000000000000000000000000000000000000000000000000000000000000000000000000000000000000000000000000000000000000000000000000000000000000000000000000000000000000000000000000000000000000000000000000000000000000000000000000000000000000000000000000000000000000000000000000000000000000000000000000000000000000000000000000000000000000000000000000000000000",
            "difficulty": "0x00",
            "number": "0x00",
            "gasLimit": "0x016345785d8a0000",
            "gasUsed": "0x00",
            "timestamp": "0x00",
            "extraData": "0x00",
            "mixHash": "0x0000000000000000000000000000000000000000000000000000000000000000",
            "nonce": "0x0000000000000000",
            "baseFeePerGas": "0x07",
            "withdrawalsRoot": "0x56e81f171bcc55a6ff8345e692c0f86e5b48e01b996cadc001622fb5e363b421",
            "blobGasUsed": "0x00",
            "excessBlobGas": "0x00",
            "beaconRoot": "0x0000000000000000000000000000000000000000000000000000000000000000",
            "hash": "0x92f8eed52528a84be053fcb3acd4ee48530d57647c9c7ebe70a9e2be7baade3c"
        },
        "genesisRLP": "0xf90240f9023aa00000000000000000000000000000000000000000000000000000000000000000a01dcc4de8dec75d7aab85b567b6ccd41ad312451b948a7413f0a142fd40d49347940000000000000000000000000000000000000000a04e6744d90f67d7ea491ebd4273e9c5eca2a06a278d80e57135cc556cbb8c8f92a056e81f171bcc55a6ff8345e692c0f86e5b48e01b996cadc001622fb5e363b421a056e81f171bcc55a6ff8345e692c0f86e5b48e01b996cadc001622fb5e363b421b9010000000000000000000000000000000000000000000000000000000000000000000000000000000000000000000000000000000000000000000000000000000000000000000000000000000000000000000000000000000000000000000000000000000000000000000000000000000000000000000000000000000000000000000000000000000000000000000000000000000000000000000000000000000000000000000000000000000000000000000000000000000000000000000000000000000000000000000000000000000000000000000000000000000000000000000000000000000000000000000000000000000000000000000000000000000000808088016345785d8a0000808000a0000000000000000000000000000000000000000000000000000000000000000088000000000000000007a056e81f171bcc55a6ff8345e692c0f86e5b48e01b996cadc001622fb5e363b4218080a00000000000000000000000000000000000000000000000000000000000000000c0c0c0",
        "lastblockhash": "0x395670e1cfd66a86a2c8634f0c0ea673a7ae2d8cd23d50f02b503ef75e0b722c",
        "network": "Cancun",
        "pre": {
            "0x000000000000000000000000000000000000000b": {
                "nonce": "0x00",
                "balance": "0x01",
                "code": "0x",
                "storage": {}
            },
            "0xa94f5374fce5edbc8e2a8697c15331677e6ebf0b": {
                "nonce": "0x00",
                "balance": "0x010000000000",
                "code": "0x",
                "storage": {}
            },
            "0x0000000000000000000000000000000000000100": {
                "nonce": "0x00",
                "balance": "0x02540be400",
                "code": "0x366000600037602060003660006000600b611068f16000556000516001553d6002553d600060003e600051600355",
                "storage": {}
            }
        },
        "postState": {
            "0x000000000000000000000000000000000000000b": {
                "nonce": "0x00",
                "balance": "0x01",
                "code": "0x",
                "storage": {
                    "0x0c": "0x0c",
                    "0x01800c": "0x3e97e493f9123f7455a3be1b388db32876beea7d165a3b63528d8f9a38b7249f"
                }
            },
            "0x0000000000000000000000000000000000000100": {
                "nonce": "0x00",
                "balance": "0x02540be400",
                "code": "0x366000600037602060003660006000600b611068f16000556000516001553d6002553d600060003e600051600355",
                "storage": {
                    "0x00": "0x01",
                    "0x01": "0x3e97e493f9123f7455a3be1b388db32876beea7d165a3b63528d8f9a38b7249f",
                    "0x02": "0x20",
                    "0x03": "0x3e97e493f9123f7455a3be1b388db32876beea7d165a3b63528d8f9a38b7249f"
                }
            },
            "0xa94f5374fce5edbc8e2a8697c15331677e6ebf0b": {
                "nonce": "0x01",
                "balance": "0xfffff3d515",
                "code": "0x",
                "storage": {}
            }
        },
        "sealEngine": "NoProof"
    },
    "001-fork=Cancun-timestamp=4294967296-valid_input=True": {
        "_info": {
            "filling-transition-tool": "evm version 1.12.1-unstable-7f86fd5b-20230731",
            "reference-spec": "https://github.com/ethereum/EIPs/blob/master/EIPS/eip-4788.md",
            "reference-spec-version": "f0eb6a364aaf5ccb43516fa2c269a54fb881ecfd"
        },
        "blocks": [
            {
                "rlp": "0xf902d1f90242a092f8eed52528a84be053fcb3acd4ee48530d57647c9c7ebe70a9e2be7baade3ca01dcc4de8dec75d7aab85b567b6ccd41ad312451b948a7413f0a142fd40d49347942adc25665018aa1fe0e6bc666dac8fc2697ff9baa00a74dd7cb22f87f51a8aa9e0e668195da09d880c5772d9817127f1fbd2e657a6a0650bdb895a3cb0b6e1fbcb064599574ac83e33d9ad9841ac0a84b31dd6a28477a0ec150835a95e5ae49ea1f60e84a9158f6b05ff9acc2f7ce4218d5077216db323b9010000000000000000000000000000000000000000000000000000000000000000000000000000000000000000000000000000000000000000000000000000000000000000000000000000000000000000000000000000000000000000000000000000000000000000000000000000000000000000000000000000000000000000000000000000000000000000000000000000000000000000000000000000000000000000000000000000000000000000000000000000000000000000000000000000000000000000000000000000000000000000000000000000000000000000000000000000000000000000000000000000000000000000000000000000000000800188016345785d8a00008301bcfd85010000000000a0000000000000000000000000000000000000000000000000000000000000000088000000000000000007a056e81f171bcc55a6ff8345e692c0f86e5b48e01b996cadc001622fb5e363b4218080a03e97e493f9123f7455a3be1b388db32876beea7d165a3b63528d8f9a38b7249ff888b88602f88301808007830f424094000000000000000000000000000000000000010080a00000000000000000000000000000000000000000000000000000000100000000c001a0f1da5ef451c6557383cd350619f550fc8ed70403dcf642ff0d288ff8617e4e1ba0366e72a2bbd616876f2b4f1c2a1fe60e786a9a7d1da5872d590707980d67e1bfc0c0",
                "blockHeader": {
                    "parentHash": "0x92f8eed52528a84be053fcb3acd4ee48530d57647c9c7ebe70a9e2be7baade3c",
                    "uncleHash": "0x1dcc4de8dec75d7aab85b567b6ccd41ad312451b948a7413f0a142fd40d49347",
                    "coinbase": "0x2adc25665018aa1fe0e6bc666dac8fc2697ff9ba",
                    "stateRoot": "0x0a74dd7cb22f87f51a8aa9e0e668195da09d880c5772d9817127f1fbd2e657a6",
                    "transactionsTrie": "0x650bdb895a3cb0b6e1fbcb064599574ac83e33d9ad9841ac0a84b31dd6a28477",
                    "receiptTrie": "0xec150835a95e5ae49ea1f60e84a9158f6b05ff9acc2f7ce4218d5077216db323",
                    "bloom": "0x00000000000000000000000000000000000000000000000000000000000000000000000000000000000000000000000000000000000000000000000000000000000000000000000000000000000000000000000000000000000000000000000000000000000000000000000000000000000000000000000000000000000000000000000000000000000000000000000000000000000000000000000000000000000000000000000000000000000000000000000000000000000000000000000000000000000000000000000000000000000000000000000000000000000000000000000000000000000000000000000000000000000000000000000000000000",
                    "difficulty": "0x00",
                    "number": "0x01",
                    "gasLimit": "0x016345785d8a0000",
                    "gasUsed": "0x01bcfd",
                    "timestamp": "0x0100000000",
                    "extraData": "0x00",
                    "mixHash": "0x0000000000000000000000000000000000000000000000000000000000000000",
                    "nonce": "0x0000000000000000",
                    "baseFeePerGas": "0x07",
                    "withdrawalsRoot": "0x56e81f171bcc55a6ff8345e692c0f86e5b48e01b996cadc001622fb5e363b421",
                    "blobGasUsed": "0x00",
                    "excessBlobGas": "0x00",
                    "beaconRoot": "0x3e97e493f9123f7455a3be1b388db32876beea7d165a3b63528d8f9a38b7249f",
                    "hash": "0xd5f3a87b8e3a4c7f550fe09d8f722a698881ecd263788310dd0720ef2311d271"
                },
                "engineNewPayload": {
                    "executionPayload": {
                        "parentHash": "0x92f8eed52528a84be053fcb3acd4ee48530d57647c9c7ebe70a9e2be7baade3c",
                        "feeRecipient": "0x2adc25665018aa1fe0e6bc666dac8fc2697ff9ba",
                        "stateRoot": "0x0a74dd7cb22f87f51a8aa9e0e668195da09d880c5772d9817127f1fbd2e657a6",
                        "receiptsRoot": "0xec150835a95e5ae49ea1f60e84a9158f6b05ff9acc2f7ce4218d5077216db323",
                        "logsBloom": "0x00000000000000000000000000000000000000000000000000000000000000000000000000000000000000000000000000000000000000000000000000000000000000000000000000000000000000000000000000000000000000000000000000000000000000000000000000000000000000000000000000000000000000000000000000000000000000000000000000000000000000000000000000000000000000000000000000000000000000000000000000000000000000000000000000000000000000000000000000000000000000000000000000000000000000000000000000000000000000000000000000000000000000000000000000000000",
                        "blockNumber": "0x1",
                        "gasLimit": "0x16345785d8a0000",
                        "gasUsed": "0x1bcfd",
                        "timestamp": "0x100000000",
                        "extraData": "0x00",
                        "prevRandao": "0x0000000000000000000000000000000000000000000000000000000000000000",
                        "baseFeePerGas": "0x7",
                        "blobGasUsed": "0x0",
                        "excessBlobGas": "0x0",
                        "blockHash": "0xd5f3a87b8e3a4c7f550fe09d8f722a698881ecd263788310dd0720ef2311d271",
                        "transactions": [
                            "0x02f88301808007830f424094000000000000000000000000000000000000010080a00000000000000000000000000000000000000000000000000000000100000000c001a0f1da5ef451c6557383cd350619f550fc8ed70403dcf642ff0d288ff8617e4e1ba0366e72a2bbd616876f2b4f1c2a1fe60e786a9a7d1da5872d590707980d67e1bf"
                        ],
                        "withdrawals": []
                    },
                    "expectedBlobVersionedHashes": [],
                    "version": "3",
                    "parentBeaconBlockRoot": "0x3e97e493f9123f7455a3be1b388db32876beea7d165a3b63528d8f9a38b7249f"
                },
                "transactions": [
                    {
                        "type": "0x02",
                        "chainId": "0x01",
                        "nonce": "0x00",
                        "maxPriorityFeePerGas": "0x00",
                        "maxFeePerGas": "0x07",
                        "gasLimit": "0x0f4240",
                        "to": "0x0000000000000000000000000000000000000100",
                        "value": "0x00",
                        "data": "0x0000000000000000000000000000000000000000000000000000000100000000",
                        "accessList": [],
                        "v": "0x01",
                        "r": "0xf1da5ef451c6557383cd350619f550fc8ed70403dcf642ff0d288ff8617e4e1b",
                        "s": "0x366e72a2bbd616876f2b4f1c2a1fe60e786a9a7d1da5872d590707980d67e1bf",
                        "sender": "0xa94f5374fce5edbc8e2a8697c15331677e6ebf0b"
                    }
                ],
                "uncleHeaders": [],
                "withdrawals": []
            }
        ],
        "genesisBlockHeader": {
            "parentHash": "0x0000000000000000000000000000000000000000000000000000000000000000",
            "uncleHash": "0x1dcc4de8dec75d7aab85b567b6ccd41ad312451b948a7413f0a142fd40d49347",
            "coinbase": "0x0000000000000000000000000000000000000000",
            "stateRoot": "0x4e6744d90f67d7ea491ebd4273e9c5eca2a06a278d80e57135cc556cbb8c8f92",
            "transactionsTrie": "0x56e81f171bcc55a6ff8345e692c0f86e5b48e01b996cadc001622fb5e363b421",
            "receiptTrie": "0x56e81f171bcc55a6ff8345e692c0f86e5b48e01b996cadc001622fb5e363b421",
            "bloom": "0x00000000000000000000000000000000000000000000000000000000000000000000000000000000000000000000000000000000000000000000000000000000000000000000000000000000000000000000000000000000000000000000000000000000000000000000000000000000000000000000000000000000000000000000000000000000000000000000000000000000000000000000000000000000000000000000000000000000000000000000000000000000000000000000000000000000000000000000000000000000000000000000000000000000000000000000000000000000000000000000000000000000000000000000000000000000",
            "difficulty": "0x00",
            "number": "0x00",
            "gasLimit": "0x016345785d8a0000",
            "gasUsed": "0x00",
            "timestamp": "0x00",
            "extraData": "0x00",
            "mixHash": "0x0000000000000000000000000000000000000000000000000000000000000000",
            "nonce": "0x0000000000000000",
            "baseFeePerGas": "0x07",
            "withdrawalsRoot": "0x56e81f171bcc55a6ff8345e692c0f86e5b48e01b996cadc001622fb5e363b421",
            "blobGasUsed": "0x00",
            "excessBlobGas": "0x00",
            "beaconRoot": "0x0000000000000000000000000000000000000000000000000000000000000000",
            "hash": "0x92f8eed52528a84be053fcb3acd4ee48530d57647c9c7ebe70a9e2be7baade3c"
        },
        "genesisRLP": "0xf90240f9023aa00000000000000000000000000000000000000000000000000000000000000000a01dcc4de8dec75d7aab85b567b6ccd41ad312451b948a7413f0a142fd40d49347940000000000000000000000000000000000000000a04e6744d90f67d7ea491ebd4273e9c5eca2a06a278d80e57135cc556cbb8c8f92a056e81f171bcc55a6ff8345e692c0f86e5b48e01b996cadc001622fb5e363b421a056e81f171bcc55a6ff8345e692c0f86e5b48e01b996cadc001622fb5e363b421b9010000000000000000000000000000000000000000000000000000000000000000000000000000000000000000000000000000000000000000000000000000000000000000000000000000000000000000000000000000000000000000000000000000000000000000000000000000000000000000000000000000000000000000000000000000000000000000000000000000000000000000000000000000000000000000000000000000000000000000000000000000000000000000000000000000000000000000000000000000000000000000000000000000000000000000000000000000000000000000000000000000000000000000000000000000000000808088016345785d8a0000808000a0000000000000000000000000000000000000000000000000000000000000000088000000000000000007a056e81f171bcc55a6ff8345e692c0f86e5b48e01b996cadc001622fb5e363b4218080a00000000000000000000000000000000000000000000000000000000000000000c0c0c0",
        "lastblockhash": "0xd5f3a87b8e3a4c7f550fe09d8f722a698881ecd263788310dd0720ef2311d271",
        "network": "Cancun",
        "pre": {
            "0x000000000000000000000000000000000000000b": {
                "nonce": "0x00",
                "balance": "0x01",
                "code": "0x",
                "storage": {}
            },
            "0xa94f5374fce5edbc8e2a8697c15331677e6ebf0b": {
                "nonce": "0x00",
                "balance": "0x010000000000",
                "code": "0x",
                "storage": {}
            },
            "0x0000000000000000000000000000000000000100": {
                "nonce": "0x00",
                "balance": "0x02540be400",
                "code": "0x366000600037602060003660006000600b611068f16000556000516001553d6002553d600060003e600051600355",
                "storage": {}
            }
        },
        "postState": {
            "0x000000000000000000000000000000000000000b": {
                "nonce": "0x00",
                "balance": "0x01",
                "code": "0x",
                "storage": {
                    "0x010000": "0x0100000000",
                    "0x028000": "0x3e97e493f9123f7455a3be1b388db32876beea7d165a3b63528d8f9a38b7249f"
                }
            },
            "0x0000000000000000000000000000000000000100": {
                "nonce": "0x00",
                "balance": "0x02540be400",
                "code": "0x366000600037602060003660006000600b611068f16000556000516001553d6002553d600060003e600051600355",
                "storage": {
                    "0x00": "0x01",
                    "0x01": "0x3e97e493f9123f7455a3be1b388db32876beea7d165a3b63528d8f9a38b7249f",
                    "0x02": "0x20",
                    "0x03": "0x3e97e493f9123f7455a3be1b388db32876beea7d165a3b63528d8f9a38b7249f"
                }
            },
            "0xa94f5374fce5edbc8e2a8697c15331677e6ebf0b": {
                "nonce": "0x01",
                "balance": "0xfffff3d515",
                "code": "0x",
                "storage": {}
            }
        },
        "sealEngine": "NoProof"
    },
    "002-fork=Cancun-timestamp=18446744073709551614-valid_input=True": {
        "_info": {
            "filling-transition-tool": "evm version 1.12.1-unstable-7f86fd5b-20230731",
            "reference-spec": "https://github.com/ethereum/EIPs/blob/master/EIPS/eip-4788.md",
            "reference-spec-version": "f0eb6a364aaf5ccb43516fa2c269a54fb881ecfd"
        },
        "blocks": [
            {
                "rlp": "0xf902d4f90245a092f8eed52528a84be053fcb3acd4ee48530d57647c9c7ebe70a9e2be7baade3ca01dcc4de8dec75d7aab85b567b6ccd41ad312451b948a7413f0a142fd40d49347942adc25665018aa1fe0e6bc666dac8fc2697ff9baa0e8d3fe4a5593edff924028e061bc65f2b44b369fc01b35073ef9807196377c53a045940ea2be08d38af48890991f7625883eaa15b65319ac4c8839984d75367878a08045b0c2cf5b8b4b42ea3cb2bd5709d76ca145329a06a93b283e7df5930f49adb9010000000000000000000000000000000000000000000000000000000000000000000000000000000000000000000000000000000000000000000000000000000000000000000000000000000000000000000000000000000000000000000000000000000000000000000000000000000000000000000000000000000000000000000000000000000000000000000000000000000000000000000000000000000000000000000000000000000000000000000000000000000000000000000000000000000000000000000000000000000000000000000000000000000000000000000000000000000000000000000000000000000000000000000000000000000000800188016345785d8a00008301bd5188fffffffffffffffe00a0000000000000000000000000000000000000000000000000000000000000000088000000000000000007a056e81f171bcc55a6ff8345e692c0f86e5b48e01b996cadc001622fb5e363b4218080a03e97e493f9123f7455a3be1b388db32876beea7d165a3b63528d8f9a38b7249ff888b88602f88301808007830f424094000000000000000000000000000000000000010080a0000000000000000000000000000000000000000000000000fffffffffffffffec080a08ada516b63964a6f07446230ca581dfa6ad8b47d8c9793b6b0ba51df01ce8b80a0779eda8846e63b5ab4916f09a951092337d6dff2ad541fecbcfaaedbd9053f5cc0c0",
                "blockHeader": {
                    "parentHash": "0x92f8eed52528a84be053fcb3acd4ee48530d57647c9c7ebe70a9e2be7baade3c",
                    "uncleHash": "0x1dcc4de8dec75d7aab85b567b6ccd41ad312451b948a7413f0a142fd40d49347",
                    "coinbase": "0x2adc25665018aa1fe0e6bc666dac8fc2697ff9ba",
                    "stateRoot": "0xe8d3fe4a5593edff924028e061bc65f2b44b369fc01b35073ef9807196377c53",
                    "transactionsTrie": "0x45940ea2be08d38af48890991f7625883eaa15b65319ac4c8839984d75367878",
                    "receiptTrie": "0x8045b0c2cf5b8b4b42ea3cb2bd5709d76ca145329a06a93b283e7df5930f49ad",
                    "bloom": "0x00000000000000000000000000000000000000000000000000000000000000000000000000000000000000000000000000000000000000000000000000000000000000000000000000000000000000000000000000000000000000000000000000000000000000000000000000000000000000000000000000000000000000000000000000000000000000000000000000000000000000000000000000000000000000000000000000000000000000000000000000000000000000000000000000000000000000000000000000000000000000000000000000000000000000000000000000000000000000000000000000000000000000000000000000000000",
                    "difficulty": "0x00",
                    "number": "0x01",
                    "gasLimit": "0x016345785d8a0000",
                    "gasUsed": "0x01bd51",
                    "timestamp": "0xfffffffffffffffe",
                    "extraData": "0x00",
                    "mixHash": "0x0000000000000000000000000000000000000000000000000000000000000000",
                    "nonce": "0x0000000000000000",
                    "baseFeePerGas": "0x07",
                    "withdrawalsRoot": "0x56e81f171bcc55a6ff8345e692c0f86e5b48e01b996cadc001622fb5e363b421",
                    "blobGasUsed": "0x00",
                    "excessBlobGas": "0x00",
                    "beaconRoot": "0x3e97e493f9123f7455a3be1b388db32876beea7d165a3b63528d8f9a38b7249f",
                    "hash": "0xb3cbfa01f0a7727a42ec666e74141862228877fdbc0db30175ea40f8645d0be7"
                },
                "engineNewPayload": {
                    "executionPayload": {
                        "parentHash": "0x92f8eed52528a84be053fcb3acd4ee48530d57647c9c7ebe70a9e2be7baade3c",
                        "feeRecipient": "0x2adc25665018aa1fe0e6bc666dac8fc2697ff9ba",
                        "stateRoot": "0xe8d3fe4a5593edff924028e061bc65f2b44b369fc01b35073ef9807196377c53",
                        "receiptsRoot": "0x8045b0c2cf5b8b4b42ea3cb2bd5709d76ca145329a06a93b283e7df5930f49ad",
                        "logsBloom": "0x00000000000000000000000000000000000000000000000000000000000000000000000000000000000000000000000000000000000000000000000000000000000000000000000000000000000000000000000000000000000000000000000000000000000000000000000000000000000000000000000000000000000000000000000000000000000000000000000000000000000000000000000000000000000000000000000000000000000000000000000000000000000000000000000000000000000000000000000000000000000000000000000000000000000000000000000000000000000000000000000000000000000000000000000000000000",
                        "blockNumber": "0x1",
                        "gasLimit": "0x16345785d8a0000",
                        "gasUsed": "0x1bd51",
                        "timestamp": "0xfffffffffffffffe",
                        "extraData": "0x00",
                        "prevRandao": "0x0000000000000000000000000000000000000000000000000000000000000000",
                        "baseFeePerGas": "0x7",
                        "blobGasUsed": "0x0",
                        "excessBlobGas": "0x0",
                        "blockHash": "0xb3cbfa01f0a7727a42ec666e74141862228877fdbc0db30175ea40f8645d0be7",
                        "transactions": [
                            "0x02f88301808007830f424094000000000000000000000000000000000000010080a0000000000000000000000000000000000000000000000000fffffffffffffffec080a08ada516b63964a6f07446230ca581dfa6ad8b47d8c9793b6b0ba51df01ce8b80a0779eda8846e63b5ab4916f09a951092337d6dff2ad541fecbcfaaedbd9053f5c"
                        ],
                        "withdrawals": []
                    },
                    "expectedBlobVersionedHashes": [],
                    "version": "3",
                    "parentBeaconBlockRoot": "0x3e97e493f9123f7455a3be1b388db32876beea7d165a3b63528d8f9a38b7249f"
                },
                "transactions": [
                    {
                        "type": "0x02",
                        "chainId": "0x01",
                        "nonce": "0x00",
                        "maxPriorityFeePerGas": "0x00",
                        "maxFeePerGas": "0x07",
                        "gasLimit": "0x0f4240",
                        "to": "0x0000000000000000000000000000000000000100",
                        "value": "0x00",
                        "data": "0x000000000000000000000000000000000000000000000000fffffffffffffffe",
                        "accessList": [],
                        "v": "0x00",
                        "r": "0x8ada516b63964a6f07446230ca581dfa6ad8b47d8c9793b6b0ba51df01ce8b80",
                        "s": "0x779eda8846e63b5ab4916f09a951092337d6dff2ad541fecbcfaaedbd9053f5c",
                        "sender": "0xa94f5374fce5edbc8e2a8697c15331677e6ebf0b"
                    }
                ],
                "uncleHeaders": [],
                "withdrawals": []
            }
        ],
        "genesisBlockHeader": {
            "parentHash": "0x0000000000000000000000000000000000000000000000000000000000000000",
            "uncleHash": "0x1dcc4de8dec75d7aab85b567b6ccd41ad312451b948a7413f0a142fd40d49347",
            "coinbase": "0x0000000000000000000000000000000000000000",
            "stateRoot": "0x4e6744d90f67d7ea491ebd4273e9c5eca2a06a278d80e57135cc556cbb8c8f92",
            "transactionsTrie": "0x56e81f171bcc55a6ff8345e692c0f86e5b48e01b996cadc001622fb5e363b421",
            "receiptTrie": "0x56e81f171bcc55a6ff8345e692c0f86e5b48e01b996cadc001622fb5e363b421",
            "bloom": "0x00000000000000000000000000000000000000000000000000000000000000000000000000000000000000000000000000000000000000000000000000000000000000000000000000000000000000000000000000000000000000000000000000000000000000000000000000000000000000000000000000000000000000000000000000000000000000000000000000000000000000000000000000000000000000000000000000000000000000000000000000000000000000000000000000000000000000000000000000000000000000000000000000000000000000000000000000000000000000000000000000000000000000000000000000000000",
            "difficulty": "0x00",
            "number": "0x00",
            "gasLimit": "0x016345785d8a0000",
            "gasUsed": "0x00",
            "timestamp": "0x00",
            "extraData": "0x00",
            "mixHash": "0x0000000000000000000000000000000000000000000000000000000000000000",
            "nonce": "0x0000000000000000",
            "baseFeePerGas": "0x07",
            "withdrawalsRoot": "0x56e81f171bcc55a6ff8345e692c0f86e5b48e01b996cadc001622fb5e363b421",
            "blobGasUsed": "0x00",
            "excessBlobGas": "0x00",
            "beaconRoot": "0x0000000000000000000000000000000000000000000000000000000000000000",
            "hash": "0x92f8eed52528a84be053fcb3acd4ee48530d57647c9c7ebe70a9e2be7baade3c"
        },
        "genesisRLP": "0xf90240f9023aa00000000000000000000000000000000000000000000000000000000000000000a01dcc4de8dec75d7aab85b567b6ccd41ad312451b948a7413f0a142fd40d49347940000000000000000000000000000000000000000a04e6744d90f67d7ea491ebd4273e9c5eca2a06a278d80e57135cc556cbb8c8f92a056e81f171bcc55a6ff8345e692c0f86e5b48e01b996cadc001622fb5e363b421a056e81f171bcc55a6ff8345e692c0f86e5b48e01b996cadc001622fb5e363b421b9010000000000000000000000000000000000000000000000000000000000000000000000000000000000000000000000000000000000000000000000000000000000000000000000000000000000000000000000000000000000000000000000000000000000000000000000000000000000000000000000000000000000000000000000000000000000000000000000000000000000000000000000000000000000000000000000000000000000000000000000000000000000000000000000000000000000000000000000000000000000000000000000000000000000000000000000000000000000000000000000000000000000000000000000000000000000808088016345785d8a0000808000a0000000000000000000000000000000000000000000000000000000000000000088000000000000000007a056e81f171bcc55a6ff8345e692c0f86e5b48e01b996cadc001622fb5e363b4218080a00000000000000000000000000000000000000000000000000000000000000000c0c0c0",
        "lastblockhash": "0xb3cbfa01f0a7727a42ec666e74141862228877fdbc0db30175ea40f8645d0be7",
        "network": "Cancun",
        "pre": {
            "0x000000000000000000000000000000000000000b": {
                "nonce": "0x00",
                "balance": "0x01",
                "code": "0x",
                "storage": {}
            },
            "0xa94f5374fce5edbc8e2a8697c15331677e6ebf0b": {
                "nonce": "0x00",
                "balance": "0x010000000000",
                "code": "0x",
                "storage": {}
            },
            "0x0000000000000000000000000000000000000100": {
                "nonce": "0x00",
                "balance": "0x02540be400",
                "code": "0x366000600037602060003660006000600b611068f16000556000516001553d6002553d600060003e600051600355",
                "storage": {}
            }
        },
        "postState": {
            "0x000000000000000000000000000000000000000b": {
                "nonce": "0x00",
                "balance": "0x01",
                "code": "0x",
                "storage": {
                    "0xfffe": "0xfffffffffffffffe",
                    "0x027ffe": "0x3e97e493f9123f7455a3be1b388db32876beea7d165a3b63528d8f9a38b7249f"
                }
            },
            "0x0000000000000000000000000000000000000100": {
                "nonce": "0x00",
                "balance": "0x02540be400",
                "code": "0x366000600037602060003660006000600b611068f16000556000516001553d6002553d600060003e600051600355",
                "storage": {
                    "0x00": "0x01",
                    "0x01": "0x3e97e493f9123f7455a3be1b388db32876beea7d165a3b63528d8f9a38b7249f",
                    "0x02": "0x20",
                    "0x03": "0x3e97e493f9123f7455a3be1b388db32876beea7d165a3b63528d8f9a38b7249f"
                }
            },
            "0xa94f5374fce5edbc8e2a8697c15331677e6ebf0b": {
                "nonce": "0x01",
                "balance": "0xfffff3d2c9",
                "code": "0x",
                "storage": {}
            }
        },
        "sealEngine": "NoProof"
    },
    "003-fork=Cancun-timestamp=18446744073709551615-valid_input=True": {
        "_info": {
            "filling-transition-tool": "evm version 1.12.1-unstable-7f86fd5b-20230731",
            "reference-spec": "https://github.com/ethereum/EIPs/blob/master/EIPS/eip-4788.md",
            "reference-spec-version": "f0eb6a364aaf5ccb43516fa2c269a54fb881ecfd"
        },
        "blocks": [
            {
                "rlp": "0xf902d4f90245a092f8eed52528a84be053fcb3acd4ee48530d57647c9c7ebe70a9e2be7baade3ca01dcc4de8dec75d7aab85b567b6ccd41ad312451b948a7413f0a142fd40d49347942adc25665018aa1fe0e6bc666dac8fc2697ff9baa0d8fbfae345badeae0d6658362cd81b3293c0b1df360a2d4c85c869bcf956ee29a05907f3e4766e470b54377808628d4b1a0a0c5bd2defe780be17f67a2fb066e6ba08045b0c2cf5b8b4b42ea3cb2bd5709d76ca145329a06a93b283e7df5930f49adb9010000000000000000000000000000000000000000000000000000000000000000000000000000000000000000000000000000000000000000000000000000000000000000000000000000000000000000000000000000000000000000000000000000000000000000000000000000000000000000000000000000000000000000000000000000000000000000000000000000000000000000000000000000000000000000000000000000000000000000000000000000000000000000000000000000000000000000000000000000000000000000000000000000000000000000000000000000000000000000000000000000000000000000000000000000000000800188016345785d8a00008301bd5188ffffffffffffffff00a0000000000000000000000000000000000000000000000000000000000000000088000000000000000007a056e81f171bcc55a6ff8345e692c0f86e5b48e01b996cadc001622fb5e363b4218080a03e97e493f9123f7455a3be1b388db32876beea7d165a3b63528d8f9a38b7249ff888b88602f88301808007830f424094000000000000000000000000000000000000010080a0000000000000000000000000000000000000000000000000ffffffffffffffffc080a0fd3e629c54b1e09f0e5465bc330b65ad3b5f71829273427c62b94d25af1c259ea04ef3fe26f50c507a69db97c193966b83256b437a8a58f5d9dc32b8fd88522d7cc0c0",
                "blockHeader": {
                    "parentHash": "0x92f8eed52528a84be053fcb3acd4ee48530d57647c9c7ebe70a9e2be7baade3c",
                    "uncleHash": "0x1dcc4de8dec75d7aab85b567b6ccd41ad312451b948a7413f0a142fd40d49347",
                    "coinbase": "0x2adc25665018aa1fe0e6bc666dac8fc2697ff9ba",
                    "stateRoot": "0xd8fbfae345badeae0d6658362cd81b3293c0b1df360a2d4c85c869bcf956ee29",
                    "transactionsTrie": "0x5907f3e4766e470b54377808628d4b1a0a0c5bd2defe780be17f67a2fb066e6b",
                    "receiptTrie": "0x8045b0c2cf5b8b4b42ea3cb2bd5709d76ca145329a06a93b283e7df5930f49ad",
                    "bloom": "0x00000000000000000000000000000000000000000000000000000000000000000000000000000000000000000000000000000000000000000000000000000000000000000000000000000000000000000000000000000000000000000000000000000000000000000000000000000000000000000000000000000000000000000000000000000000000000000000000000000000000000000000000000000000000000000000000000000000000000000000000000000000000000000000000000000000000000000000000000000000000000000000000000000000000000000000000000000000000000000000000000000000000000000000000000000000",
                    "difficulty": "0x00",
                    "number": "0x01",
                    "gasLimit": "0x016345785d8a0000",
                    "gasUsed": "0x01bd51",
                    "timestamp": "0xffffffffffffffff",
                    "extraData": "0x00",
                    "mixHash": "0x0000000000000000000000000000000000000000000000000000000000000000",
                    "nonce": "0x0000000000000000",
                    "baseFeePerGas": "0x07",
                    "withdrawalsRoot": "0x56e81f171bcc55a6ff8345e692c0f86e5b48e01b996cadc001622fb5e363b421",
                    "blobGasUsed": "0x00",
                    "excessBlobGas": "0x00",
                    "beaconRoot": "0x3e97e493f9123f7455a3be1b388db32876beea7d165a3b63528d8f9a38b7249f",
                    "hash": "0xe2da1ec8fce998c1861b88d9bb54a9ea67abb71806f92eec709a90010086a383"
                },
                "engineNewPayload": {
                    "executionPayload": {
                        "parentHash": "0x92f8eed52528a84be053fcb3acd4ee48530d57647c9c7ebe70a9e2be7baade3c",
                        "feeRecipient": "0x2adc25665018aa1fe0e6bc666dac8fc2697ff9ba",
                        "stateRoot": "0xd8fbfae345badeae0d6658362cd81b3293c0b1df360a2d4c85c869bcf956ee29",
                        "receiptsRoot": "0x8045b0c2cf5b8b4b42ea3cb2bd5709d76ca145329a06a93b283e7df5930f49ad",
                        "logsBloom": "0x00000000000000000000000000000000000000000000000000000000000000000000000000000000000000000000000000000000000000000000000000000000000000000000000000000000000000000000000000000000000000000000000000000000000000000000000000000000000000000000000000000000000000000000000000000000000000000000000000000000000000000000000000000000000000000000000000000000000000000000000000000000000000000000000000000000000000000000000000000000000000000000000000000000000000000000000000000000000000000000000000000000000000000000000000000000",
                        "blockNumber": "0x1",
                        "gasLimit": "0x16345785d8a0000",
                        "gasUsed": "0x1bd51",
                        "timestamp": "0xffffffffffffffff",
                        "extraData": "0x00",
                        "prevRandao": "0x0000000000000000000000000000000000000000000000000000000000000000",
                        "baseFeePerGas": "0x7",
                        "blobGasUsed": "0x0",
                        "excessBlobGas": "0x0",
                        "blockHash": "0xe2da1ec8fce998c1861b88d9bb54a9ea67abb71806f92eec709a90010086a383",
                        "transactions": [
                            "0x02f88301808007830f424094000000000000000000000000000000000000010080a0000000000000000000000000000000000000000000000000ffffffffffffffffc080a0fd3e629c54b1e09f0e5465bc330b65ad3b5f71829273427c62b94d25af1c259ea04ef3fe26f50c507a69db97c193966b83256b437a8a58f5d9dc32b8fd88522d7c"
                        ],
                        "withdrawals": []
                    },
                    "expectedBlobVersionedHashes": [],
                    "version": "3",
                    "parentBeaconBlockRoot": "0x3e97e493f9123f7455a3be1b388db32876beea7d165a3b63528d8f9a38b7249f"
                },
                "transactions": [
                    {
                        "type": "0x02",
                        "chainId": "0x01",
                        "nonce": "0x00",
                        "maxPriorityFeePerGas": "0x00",
                        "maxFeePerGas": "0x07",
                        "gasLimit": "0x0f4240",
                        "to": "0x0000000000000000000000000000000000000100",
                        "value": "0x00",
                        "data": "0x000000000000000000000000000000000000000000000000ffffffffffffffff",
                        "accessList": [],
                        "v": "0x00",
                        "r": "0xfd3e629c54b1e09f0e5465bc330b65ad3b5f71829273427c62b94d25af1c259e",
                        "s": "0x4ef3fe26f50c507a69db97c193966b83256b437a8a58f5d9dc32b8fd88522d7c",
                        "sender": "0xa94f5374fce5edbc8e2a8697c15331677e6ebf0b"
                    }
                ],
                "uncleHeaders": [],
                "withdrawals": []
            }
        ],
        "genesisBlockHeader": {
            "parentHash": "0x0000000000000000000000000000000000000000000000000000000000000000",
            "uncleHash": "0x1dcc4de8dec75d7aab85b567b6ccd41ad312451b948a7413f0a142fd40d49347",
            "coinbase": "0x0000000000000000000000000000000000000000",
            "stateRoot": "0x4e6744d90f67d7ea491ebd4273e9c5eca2a06a278d80e57135cc556cbb8c8f92",
            "transactionsTrie": "0x56e81f171bcc55a6ff8345e692c0f86e5b48e01b996cadc001622fb5e363b421",
            "receiptTrie": "0x56e81f171bcc55a6ff8345e692c0f86e5b48e01b996cadc001622fb5e363b421",
            "bloom": "0x00000000000000000000000000000000000000000000000000000000000000000000000000000000000000000000000000000000000000000000000000000000000000000000000000000000000000000000000000000000000000000000000000000000000000000000000000000000000000000000000000000000000000000000000000000000000000000000000000000000000000000000000000000000000000000000000000000000000000000000000000000000000000000000000000000000000000000000000000000000000000000000000000000000000000000000000000000000000000000000000000000000000000000000000000000000",
            "difficulty": "0x00",
            "number": "0x00",
            "gasLimit": "0x016345785d8a0000",
            "gasUsed": "0x00",
            "timestamp": "0x00",
            "extraData": "0x00",
            "mixHash": "0x0000000000000000000000000000000000000000000000000000000000000000",
            "nonce": "0x0000000000000000",
            "baseFeePerGas": "0x07",
            "withdrawalsRoot": "0x56e81f171bcc55a6ff8345e692c0f86e5b48e01b996cadc001622fb5e363b421",
            "blobGasUsed": "0x00",
            "excessBlobGas": "0x00",
            "beaconRoot": "0x0000000000000000000000000000000000000000000000000000000000000000",
            "hash": "0x92f8eed52528a84be053fcb3acd4ee48530d57647c9c7ebe70a9e2be7baade3c"
        },
        "genesisRLP": "0xf90240f9023aa00000000000000000000000000000000000000000000000000000000000000000a01dcc4de8dec75d7aab85b567b6ccd41ad312451b948a7413f0a142fd40d49347940000000000000000000000000000000000000000a04e6744d90f67d7ea491ebd4273e9c5eca2a06a278d80e57135cc556cbb8c8f92a056e81f171bcc55a6ff8345e692c0f86e5b48e01b996cadc001622fb5e363b421a056e81f171bcc55a6ff8345e692c0f86e5b48e01b996cadc001622fb5e363b421b9010000000000000000000000000000000000000000000000000000000000000000000000000000000000000000000000000000000000000000000000000000000000000000000000000000000000000000000000000000000000000000000000000000000000000000000000000000000000000000000000000000000000000000000000000000000000000000000000000000000000000000000000000000000000000000000000000000000000000000000000000000000000000000000000000000000000000000000000000000000000000000000000000000000000000000000000000000000000000000000000000000000000000000000000000000000000808088016345785d8a0000808000a0000000000000000000000000000000000000000000000000000000000000000088000000000000000007a056e81f171bcc55a6ff8345e692c0f86e5b48e01b996cadc001622fb5e363b4218080a00000000000000000000000000000000000000000000000000000000000000000c0c0c0",
        "lastblockhash": "0xe2da1ec8fce998c1861b88d9bb54a9ea67abb71806f92eec709a90010086a383",
        "network": "Cancun",
        "pre": {
            "0x000000000000000000000000000000000000000b": {
                "nonce": "0x00",
                "balance": "0x01",
                "code": "0x",
                "storage": {}
            },
            "0xa94f5374fce5edbc8e2a8697c15331677e6ebf0b": {
                "nonce": "0x00",
                "balance": "0x010000000000",
                "code": "0x",
                "storage": {}
            },
            "0x0000000000000000000000000000000000000100": {
                "nonce": "0x00",
                "balance": "0x02540be400",
                "code": "0x366000600037602060003660006000600b611068f16000556000516001553d6002553d600060003e600051600355",
                "storage": {}
            }
        },
        "postState": {
            "0x000000000000000000000000000000000000000b": {
                "nonce": "0x00",
                "balance": "0x01",
                "code": "0x",
                "storage": {
                    "0xffff": "0xffffffffffffffff",
                    "0x027fff": "0x3e97e493f9123f7455a3be1b388db32876beea7d165a3b63528d8f9a38b7249f"
                }
            },
            "0x0000000000000000000000000000000000000100": {
                "nonce": "0x00",
                "balance": "0x02540be400",
                "code": "0x366000600037602060003660006000600b611068f16000556000516001553d6002553d600060003e600051600355",
                "storage": {
                    "0x00": "0x01",
                    "0x01": "0x3e97e493f9123f7455a3be1b388db32876beea7d165a3b63528d8f9a38b7249f",
                    "0x02": "0x20",
                    "0x03": "0x3e97e493f9123f7455a3be1b388db32876beea7d165a3b63528d8f9a38b7249f"
                }
            },
            "0xa94f5374fce5edbc8e2a8697c15331677e6ebf0b": {
                "nonce": "0x01",
                "balance": "0xfffff3d2c9",
                "code": "0x",
                "storage": {}
            }
        },
        "sealEngine": "NoProof"
    }
}