{
    "000-fork=Cancun-beacon_root=12-timestamp=12": {
        "_info": {
            "filling-transition-tool": "evm version 1.12.1-unstable-dc9e61da-20230801",
            "reference-spec": "https://github.com/ethereum/EIPs/blob/master/EIPS/eip-4788.md",
            "reference-spec-version": "f0eb6a364aaf5ccb43516fa2c269a54fb881ecfd"
        },
        "blocks": [
            {
                "rlp": "0xf902ccf9023da066954dfc4b83962c5606e1cf1d58a96f9a6cbc27036a9d2b3e3e6a3dd561ee54a01dcc4de8dec75d7aab85b567b6ccd41ad312451b948a7413f0a142fd40d49347942adc25665018aa1fe0e6bc666dac8fc2697ff9baa024d2c3591ac17774bbaa290c814faa357faa34fefdab513e9a8682ed4ca0df4ca07d98be72f9136e95c03dd194c12ac10b3bd8a1d92997c22c25b49a3b734e9adaa0ec150835a95e5ae49ea1f60e84a9158f6b05ff9acc2f7ce4218d5077216db323b9010000000000000000000000000000000000000000000000000000000000000000000000000000000000000000000000000000000000000000000000000000000000000000000000000000000000000000000000000000000000000000000000000000000000000000000000000000000000000000000000000000000000000000000000000000000000000000000000000000000000000000000000000000000000000000000000000000000000000000000000000000000000000000000000000000000000000000000000000000000000000000000000000000000000000000000000000000000000000000000000000000000000000000000000000000000000800188016345785d8a00008301bcfd0c00a0000000000000000000000000000000000000000000000000000000000000000088000000000000000007a056e81f171bcc55a6ff8345e692c0f86e5b48e01b996cadc001622fb5e363b4218080a0000000000000000000000000000000000000000000000000000000000000000cf888b88602f88301808007830f424094000000000000000000000000000000000000010080a0000000000000000000000000000000000000000000000000000000000000000cc080a09def14c251e6d0b857c40d13f8bd358608277d2c90cb2340ac4fe75cbe35f445a05cd757be2f85dd0560322bd54d04199a371c950a83e4706b7f8e2840dbdc01ebc0c0",
                "blockHeader": {
                    "parentHash": "0x66954dfc4b83962c5606e1cf1d58a96f9a6cbc27036a9d2b3e3e6a3dd561ee54",
                    "uncleHash": "0x1dcc4de8dec75d7aab85b567b6ccd41ad312451b948a7413f0a142fd40d49347",
                    "coinbase": "0x2adc25665018aa1fe0e6bc666dac8fc2697ff9ba",
                    "stateRoot": "0x24d2c3591ac17774bbaa290c814faa357faa34fefdab513e9a8682ed4ca0df4c",
                    "transactionsTrie": "0x7d98be72f9136e95c03dd194c12ac10b3bd8a1d92997c22c25b49a3b734e9ada",
                    "receiptTrie": "0xec150835a95e5ae49ea1f60e84a9158f6b05ff9acc2f7ce4218d5077216db323",
                    "bloom": "0x00000000000000000000000000000000000000000000000000000000000000000000000000000000000000000000000000000000000000000000000000000000000000000000000000000000000000000000000000000000000000000000000000000000000000000000000000000000000000000000000000000000000000000000000000000000000000000000000000000000000000000000000000000000000000000000000000000000000000000000000000000000000000000000000000000000000000000000000000000000000000000000000000000000000000000000000000000000000000000000000000000000000000000000000000000000",
                    "difficulty": "0x00",
                    "number": "0x01",
                    "gasLimit": "0x016345785d8a0000",
                    "gasUsed": "0x01bcfd",
                    "timestamp": "0x0c",
                    "extraData": "0x00",
                    "mixHash": "0x0000000000000000000000000000000000000000000000000000000000000000",
                    "nonce": "0x0000000000000000",
                    "baseFeePerGas": "0x07",
                    "withdrawalsRoot": "0x56e81f171bcc55a6ff8345e692c0f86e5b48e01b996cadc001622fb5e363b421",
                    "blobGasUsed": "0x00",
                    "excessBlobGas": "0x00",
                    "parentBeaconBlockRoot": "0x000000000000000000000000000000000000000000000000000000000000000c",
                    "hash": "0xbd14c3ff17840468d2c5522ddfd075b37a8448271eb7d112784451a84540609a"
                },
                "engineNewPayload": {
                    "executionPayload": {
                        "parentHash": "0x66954dfc4b83962c5606e1cf1d58a96f9a6cbc27036a9d2b3e3e6a3dd561ee54",
                        "feeRecipient": "0x2adc25665018aa1fe0e6bc666dac8fc2697ff9ba",
                        "stateRoot": "0x24d2c3591ac17774bbaa290c814faa357faa34fefdab513e9a8682ed4ca0df4c",
                        "receiptsRoot": "0xec150835a95e5ae49ea1f60e84a9158f6b05ff9acc2f7ce4218d5077216db323",
                        "logsBloom": "0x00000000000000000000000000000000000000000000000000000000000000000000000000000000000000000000000000000000000000000000000000000000000000000000000000000000000000000000000000000000000000000000000000000000000000000000000000000000000000000000000000000000000000000000000000000000000000000000000000000000000000000000000000000000000000000000000000000000000000000000000000000000000000000000000000000000000000000000000000000000000000000000000000000000000000000000000000000000000000000000000000000000000000000000000000000000",
                        "blockNumber": "0x1",
                        "gasLimit": "0x16345785d8a0000",
                        "gasUsed": "0x1bcfd",
                        "timestamp": "0xc",
                        "extraData": "0x00",
                        "prevRandao": "0x0000000000000000000000000000000000000000000000000000000000000000",
                        "baseFeePerGas": "0x7",
                        "blobGasUsed": "0x0",
                        "excessBlobGas": "0x0",
                        "blockHash": "0xbd14c3ff17840468d2c5522ddfd075b37a8448271eb7d112784451a84540609a",
                        "transactions": [
                            "0x02f88301808007830f424094000000000000000000000000000000000000010080a0000000000000000000000000000000000000000000000000000000000000000cc080a09def14c251e6d0b857c40d13f8bd358608277d2c90cb2340ac4fe75cbe35f445a05cd757be2f85dd0560322bd54d04199a371c950a83e4706b7f8e2840dbdc01eb"
                        ],
                        "withdrawals": []
                    },
                    "expectedBlobVersionedHashes": [],
                    "version": "3",
                    "parentBeaconBlockRoot": "0x000000000000000000000000000000000000000000000000000000000000000c"
                },
                "transactions": [
                    {
                        "type": "0x02",
                        "chainId": "0x01",
                        "nonce": "0x00",
                        "maxPriorityFeePerGas": "0x00",
                        "maxFeePerGas": "0x07",
                        "gasLimit": "0x0f4240",
                        "to": "0x0000000000000000000000000000000000000100",
                        "value": "0x00",
                        "data": "0x000000000000000000000000000000000000000000000000000000000000000c",
                        "accessList": [],
                        "v": "0x00",
                        "r": "0x9def14c251e6d0b857c40d13f8bd358608277d2c90cb2340ac4fe75cbe35f445",
                        "s": "0x5cd757be2f85dd0560322bd54d04199a371c950a83e4706b7f8e2840dbdc01eb",
                        "sender": "0xa94f5374fce5edbc8e2a8697c15331677e6ebf0b"
                    }
                ],
                "uncleHeaders": [],
                "withdrawals": []
            }
        ],
        "genesisBlockHeader": {
            "parentHash": "0x0000000000000000000000000000000000000000000000000000000000000000",
            "uncleHash": "0x1dcc4de8dec75d7aab85b567b6ccd41ad312451b948a7413f0a142fd40d49347",
            "coinbase": "0x0000000000000000000000000000000000000000",
            "stateRoot": "0xbbd52b2fa3742c708efb8d3c67b97f7326739d3ce1d59542a971b93aabbdf034",
            "transactionsTrie": "0x56e81f171bcc55a6ff8345e692c0f86e5b48e01b996cadc001622fb5e363b421",
            "receiptTrie": "0x56e81f171bcc55a6ff8345e692c0f86e5b48e01b996cadc001622fb5e363b421",
            "bloom": "0x00000000000000000000000000000000000000000000000000000000000000000000000000000000000000000000000000000000000000000000000000000000000000000000000000000000000000000000000000000000000000000000000000000000000000000000000000000000000000000000000000000000000000000000000000000000000000000000000000000000000000000000000000000000000000000000000000000000000000000000000000000000000000000000000000000000000000000000000000000000000000000000000000000000000000000000000000000000000000000000000000000000000000000000000000000000",
            "difficulty": "0x00",
            "number": "0x00",
            "gasLimit": "0x016345785d8a0000",
            "gasUsed": "0x00",
            "timestamp": "0x00",
            "extraData": "0x00",
            "mixHash": "0x0000000000000000000000000000000000000000000000000000000000000000",
            "nonce": "0x0000000000000000",
            "baseFeePerGas": "0x07",
            "withdrawalsRoot": "0x56e81f171bcc55a6ff8345e692c0f86e5b48e01b996cadc001622fb5e363b421",
            "blobGasUsed": "0x00",
            "excessBlobGas": "0x00",
            "parentBeaconBlockRoot": "0x0000000000000000000000000000000000000000000000000000000000000000",
            "hash": "0x66954dfc4b83962c5606e1cf1d58a96f9a6cbc27036a9d2b3e3e6a3dd561ee54"
        },
        "genesisRLP": "0xf90240f9023aa00000000000000000000000000000000000000000000000000000000000000000a01dcc4de8dec75d7aab85b567b6ccd41ad312451b948a7413f0a142fd40d49347940000000000000000000000000000000000000000a0bbd52b2fa3742c708efb8d3c67b97f7326739d3ce1d59542a971b93aabbdf034a056e81f171bcc55a6ff8345e692c0f86e5b48e01b996cadc001622fb5e363b421a056e81f171bcc55a6ff8345e692c0f86e5b48e01b996cadc001622fb5e363b421b9010000000000000000000000000000000000000000000000000000000000000000000000000000000000000000000000000000000000000000000000000000000000000000000000000000000000000000000000000000000000000000000000000000000000000000000000000000000000000000000000000000000000000000000000000000000000000000000000000000000000000000000000000000000000000000000000000000000000000000000000000000000000000000000000000000000000000000000000000000000000000000000000000000000000000000000000000000000000000000000000000000000000000000000000000000000000808088016345785d8a0000808000a0000000000000000000000000000000000000000000000000000000000000000088000000000000000007a056e81f171bcc55a6ff8345e692c0f86e5b48e01b996cadc001622fb5e363b4218080a00000000000000000000000000000000000000000000000000000000000000000c0c0c0",
        "lastblockhash": "0xbd14c3ff17840468d2c5522ddfd075b37a8448271eb7d112784451a84540609a",
        "network": "Cancun",
        "pre": {
            "0x000000000000000000000000000000000000000b": {
                "nonce": "0x01",
                "balance": "0x01",
                "code": "0x",
                "storage": {}
            },
            "0x0000000000000000000000000000000000000100": {
                "nonce": "0x00",
                "balance": "0x010000000000",
                "code": "0x366000600037602060003660006000600b611068f16000556000516001553d6002553d600060003e600051600355",
                "storage": {}
            },
            "0xa94f5374fce5edbc8e2a8697c15331677e6ebf0b": {
                "nonce": "0x00",
                "balance": "0x010000000000",
                "code": "0x",
                "storage": {}
            }
        },
        "postState": {
            "0x000000000000000000000000000000000000000b": {
                "nonce": "0x01",
                "balance": "0x01",
                "code": "0x",
                "storage": {
                    "0x0c": "0x0c",
                    "0x01800c": "0x0c"
                }
            },
            "0x0000000000000000000000000000000000000100": {
                "nonce": "0x00",
                "balance": "0x010000000000",
                "code": "0x366000600037602060003660006000600b611068f16000556000516001553d6002553d600060003e600051600355",
                "storage": {
                    "0x00": "0x01",
                    "0x01": "0x0c",
                    "0x02": "0x20",
                    "0x03": "0x0c"
                }
            },
            "0xa94f5374fce5edbc8e2a8697c15331677e6ebf0b": {
                "nonce": "0x01",
                "balance": "0xfffff3d515",
                "code": "0x",
                "storage": {}
            }
        },
        "sealEngine": "NoProof"
    },
    "001-fork=Cancun-beacon_root=4294967296-timestamp=4294967296": {
        "_info": {
            "filling-transition-tool": "evm version 1.12.1-unstable-dc9e61da-20230801",
            "reference-spec": "https://github.com/ethereum/EIPs/blob/master/EIPS/eip-4788.md",
            "reference-spec-version": "f0eb6a364aaf5ccb43516fa2c269a54fb881ecfd"
        },
        "blocks": [
            {
                "rlp": "0xf902d1f90242a066954dfc4b83962c5606e1cf1d58a96f9a6cbc27036a9d2b3e3e6a3dd561ee54a01dcc4de8dec75d7aab85b567b6ccd41ad312451b948a7413f0a142fd40d49347942adc25665018aa1fe0e6bc666dac8fc2697ff9baa017282dcdb2e8bc892596407ca26e9cb976c7294f388f0b7c3d953ddf56cc39bba0650bdb895a3cb0b6e1fbcb064599574ac83e33d9ad9841ac0a84b31dd6a28477a0ec150835a95e5ae49ea1f60e84a9158f6b05ff9acc2f7ce4218d5077216db323b9010000000000000000000000000000000000000000000000000000000000000000000000000000000000000000000000000000000000000000000000000000000000000000000000000000000000000000000000000000000000000000000000000000000000000000000000000000000000000000000000000000000000000000000000000000000000000000000000000000000000000000000000000000000000000000000000000000000000000000000000000000000000000000000000000000000000000000000000000000000000000000000000000000000000000000000000000000000000000000000000000000000000000000000000000000000000800188016345785d8a00008301bcfd85010000000000a0000000000000000000000000000000000000000000000000000000000000000088000000000000000007a056e81f171bcc55a6ff8345e692c0f86e5b48e01b996cadc001622fb5e363b4218080a00000000000000000000000000000000000000000000000000000000100000000f888b88602f88301808007830f424094000000000000000000000000000000000000010080a00000000000000000000000000000000000000000000000000000000100000000c001a0f1da5ef451c6557383cd350619f550fc8ed70403dcf642ff0d288ff8617e4e1ba0366e72a2bbd616876f2b4f1c2a1fe60e786a9a7d1da5872d590707980d67e1bfc0c0",
                "blockHeader": {
                    "parentHash": "0x66954dfc4b83962c5606e1cf1d58a96f9a6cbc27036a9d2b3e3e6a3dd561ee54",
                    "uncleHash": "0x1dcc4de8dec75d7aab85b567b6ccd41ad312451b948a7413f0a142fd40d49347",
                    "coinbase": "0x2adc25665018aa1fe0e6bc666dac8fc2697ff9ba",
                    "stateRoot": "0x17282dcdb2e8bc892596407ca26e9cb976c7294f388f0b7c3d953ddf56cc39bb",
                    "transactionsTrie": "0x650bdb895a3cb0b6e1fbcb064599574ac83e33d9ad9841ac0a84b31dd6a28477",
                    "receiptTrie": "0xec150835a95e5ae49ea1f60e84a9158f6b05ff9acc2f7ce4218d5077216db323",
                    "bloom": "0x00000000000000000000000000000000000000000000000000000000000000000000000000000000000000000000000000000000000000000000000000000000000000000000000000000000000000000000000000000000000000000000000000000000000000000000000000000000000000000000000000000000000000000000000000000000000000000000000000000000000000000000000000000000000000000000000000000000000000000000000000000000000000000000000000000000000000000000000000000000000000000000000000000000000000000000000000000000000000000000000000000000000000000000000000000000",
                    "difficulty": "0x00",
                    "number": "0x01",
                    "gasLimit": "0x016345785d8a0000",
                    "gasUsed": "0x01bcfd",
                    "timestamp": "0x0100000000",
                    "extraData": "0x00",
                    "mixHash": "0x0000000000000000000000000000000000000000000000000000000000000000",
                    "nonce": "0x0000000000000000",
                    "baseFeePerGas": "0x07",
                    "withdrawalsRoot": "0x56e81f171bcc55a6ff8345e692c0f86e5b48e01b996cadc001622fb5e363b421",
                    "blobGasUsed": "0x00",
                    "excessBlobGas": "0x00",
                    "parentBeaconBlockRoot": "0x0000000000000000000000000000000000000000000000000000000100000000",
                    "hash": "0xfd88f255aaee46bd5761854414edcd3ca9866180f8ed3b3ddd29a19ace994a48"
                },
                "engineNewPayload": {
                    "executionPayload": {
                        "parentHash": "0x66954dfc4b83962c5606e1cf1d58a96f9a6cbc27036a9d2b3e3e6a3dd561ee54",
                        "feeRecipient": "0x2adc25665018aa1fe0e6bc666dac8fc2697ff9ba",
                        "stateRoot": "0x17282dcdb2e8bc892596407ca26e9cb976c7294f388f0b7c3d953ddf56cc39bb",
                        "receiptsRoot": "0xec150835a95e5ae49ea1f60e84a9158f6b05ff9acc2f7ce4218d5077216db323",
                        "logsBloom": "0x00000000000000000000000000000000000000000000000000000000000000000000000000000000000000000000000000000000000000000000000000000000000000000000000000000000000000000000000000000000000000000000000000000000000000000000000000000000000000000000000000000000000000000000000000000000000000000000000000000000000000000000000000000000000000000000000000000000000000000000000000000000000000000000000000000000000000000000000000000000000000000000000000000000000000000000000000000000000000000000000000000000000000000000000000000000",
                        "blockNumber": "0x1",
                        "gasLimit": "0x16345785d8a0000",
                        "gasUsed": "0x1bcfd",
                        "timestamp": "0x100000000",
                        "extraData": "0x00",
                        "prevRandao": "0x0000000000000000000000000000000000000000000000000000000000000000",
                        "baseFeePerGas": "0x7",
                        "blobGasUsed": "0x0",
                        "excessBlobGas": "0x0",
                        "blockHash": "0xfd88f255aaee46bd5761854414edcd3ca9866180f8ed3b3ddd29a19ace994a48",
                        "transactions": [
                            "0x02f88301808007830f424094000000000000000000000000000000000000010080a00000000000000000000000000000000000000000000000000000000100000000c001a0f1da5ef451c6557383cd350619f550fc8ed70403dcf642ff0d288ff8617e4e1ba0366e72a2bbd616876f2b4f1c2a1fe60e786a9a7d1da5872d590707980d67e1bf"
                        ],
                        "withdrawals": []
                    },
                    "expectedBlobVersionedHashes": [],
                    "version": "3",
                    "parentBeaconBlockRoot": "0x0000000000000000000000000000000000000000000000000000000100000000"
                },
                "transactions": [
                    {
                        "type": "0x02",
                        "chainId": "0x01",
                        "nonce": "0x00",
                        "maxPriorityFeePerGas": "0x00",
                        "maxFeePerGas": "0x07",
                        "gasLimit": "0x0f4240",
                        "to": "0x0000000000000000000000000000000000000100",
                        "value": "0x00",
                        "data": "0x0000000000000000000000000000000000000000000000000000000100000000",
                        "accessList": [],
                        "v": "0x01",
                        "r": "0xf1da5ef451c6557383cd350619f550fc8ed70403dcf642ff0d288ff8617e4e1b",
                        "s": "0x366e72a2bbd616876f2b4f1c2a1fe60e786a9a7d1da5872d590707980d67e1bf",
                        "sender": "0xa94f5374fce5edbc8e2a8697c15331677e6ebf0b"
                    }
                ],
                "uncleHeaders": [],
                "withdrawals": []
            }
        ],
        "genesisBlockHeader": {
            "parentHash": "0x0000000000000000000000000000000000000000000000000000000000000000",
            "uncleHash": "0x1dcc4de8dec75d7aab85b567b6ccd41ad312451b948a7413f0a142fd40d49347",
            "coinbase": "0x0000000000000000000000000000000000000000",
            "stateRoot": "0xbbd52b2fa3742c708efb8d3c67b97f7326739d3ce1d59542a971b93aabbdf034",
            "transactionsTrie": "0x56e81f171bcc55a6ff8345e692c0f86e5b48e01b996cadc001622fb5e363b421",
            "receiptTrie": "0x56e81f171bcc55a6ff8345e692c0f86e5b48e01b996cadc001622fb5e363b421",
            "bloom": "0x00000000000000000000000000000000000000000000000000000000000000000000000000000000000000000000000000000000000000000000000000000000000000000000000000000000000000000000000000000000000000000000000000000000000000000000000000000000000000000000000000000000000000000000000000000000000000000000000000000000000000000000000000000000000000000000000000000000000000000000000000000000000000000000000000000000000000000000000000000000000000000000000000000000000000000000000000000000000000000000000000000000000000000000000000000000",
            "difficulty": "0x00",
            "number": "0x00",
            "gasLimit": "0x016345785d8a0000",
            "gasUsed": "0x00",
            "timestamp": "0x00",
            "extraData": "0x00",
            "mixHash": "0x0000000000000000000000000000000000000000000000000000000000000000",
            "nonce": "0x0000000000000000",
            "baseFeePerGas": "0x07",
            "withdrawalsRoot": "0x56e81f171bcc55a6ff8345e692c0f86e5b48e01b996cadc001622fb5e363b421",
            "blobGasUsed": "0x00",
            "excessBlobGas": "0x00",
            "parentBeaconBlockRoot": "0x0000000000000000000000000000000000000000000000000000000000000000",
            "hash": "0x66954dfc4b83962c5606e1cf1d58a96f9a6cbc27036a9d2b3e3e6a3dd561ee54"
        },
        "genesisRLP": "0xf90240f9023aa00000000000000000000000000000000000000000000000000000000000000000a01dcc4de8dec75d7aab85b567b6ccd41ad312451b948a7413f0a142fd40d49347940000000000000000000000000000000000000000a0bbd52b2fa3742c708efb8d3c67b97f7326739d3ce1d59542a971b93aabbdf034a056e81f171bcc55a6ff8345e692c0f86e5b48e01b996cadc001622fb5e363b421a056e81f171bcc55a6ff8345e692c0f86e5b48e01b996cadc001622fb5e363b421b9010000000000000000000000000000000000000000000000000000000000000000000000000000000000000000000000000000000000000000000000000000000000000000000000000000000000000000000000000000000000000000000000000000000000000000000000000000000000000000000000000000000000000000000000000000000000000000000000000000000000000000000000000000000000000000000000000000000000000000000000000000000000000000000000000000000000000000000000000000000000000000000000000000000000000000000000000000000000000000000000000000000000000000000000000000000000808088016345785d8a0000808000a0000000000000000000000000000000000000000000000000000000000000000088000000000000000007a056e81f171bcc55a6ff8345e692c0f86e5b48e01b996cadc001622fb5e363b4218080a00000000000000000000000000000000000000000000000000000000000000000c0c0c0",
        "lastblockhash": "0xfd88f255aaee46bd5761854414edcd3ca9866180f8ed3b3ddd29a19ace994a48",
        "network": "Cancun",
        "pre": {
            "0x000000000000000000000000000000000000000b": {
                "nonce": "0x01",
                "balance": "0x01",
                "code": "0x",
                "storage": {}
            },
            "0x0000000000000000000000000000000000000100": {
                "nonce": "0x00",
                "balance": "0x010000000000",
                "code": "0x366000600037602060003660006000600b611068f16000556000516001553d6002553d600060003e600051600355",
                "storage": {}
            },
            "0xa94f5374fce5edbc8e2a8697c15331677e6ebf0b": {
                "nonce": "0x00",
                "balance": "0x010000000000",
                "code": "0x",
                "storage": {}
            }
        },
        "postState": {
            "0x000000000000000000000000000000000000000b": {
                "nonce": "0x01",
                "balance": "0x01",
                "code": "0x",
                "storage": {
                    "0x010000": "0x0100000000",
                    "0x028000": "0x0100000000"
                }
            },
            "0x0000000000000000000000000000000000000100": {
                "nonce": "0x00",
                "balance": "0x010000000000",
                "code": "0x366000600037602060003660006000600b611068f16000556000516001553d6002553d600060003e600051600355",
                "storage": {
                    "0x00": "0x01",
                    "0x01": "0x0100000000",
                    "0x02": "0x20",
                    "0x03": "0x0100000000"
                }
            },
            "0xa94f5374fce5edbc8e2a8697c15331677e6ebf0b": {
                "nonce": "0x01",
                "balance": "0xfffff3d515",
                "code": "0x",
                "storage": {}
            }
        },
        "sealEngine": "NoProof"
    },
    "002-fork=Cancun-beacon_root=18446744073709551614-timestamp=18446744073709551614": {
        "_info": {
            "filling-transition-tool": "evm version 1.12.1-unstable-dc9e61da-20230801",
            "reference-spec": "https://github.com/ethereum/EIPs/blob/master/EIPS/eip-4788.md",
            "reference-spec-version": "f0eb6a364aaf5ccb43516fa2c269a54fb881ecfd"
        },
        "blocks": [
            {
                "rlp": "0xf902d4f90245a066954dfc4b83962c5606e1cf1d58a96f9a6cbc27036a9d2b3e3e6a3dd561ee54a01dcc4de8dec75d7aab85b567b6ccd41ad312451b948a7413f0a142fd40d49347942adc25665018aa1fe0e6bc666dac8fc2697ff9baa0e6d73ad245ada59ed1701b13f05ec519e76b2fc225b96ee12e79d30c73fff8e2a045940ea2be08d38af48890991f7625883eaa15b65319ac4c8839984d75367878a08045b0c2cf5b8b4b42ea3cb2bd5709d76ca145329a06a93b283e7df5930f49adb9010000000000000000000000000000000000000000000000000000000000000000000000000000000000000000000000000000000000000000000000000000000000000000000000000000000000000000000000000000000000000000000000000000000000000000000000000000000000000000000000000000000000000000000000000000000000000000000000000000000000000000000000000000000000000000000000000000000000000000000000000000000000000000000000000000000000000000000000000000000000000000000000000000000000000000000000000000000000000000000000000000000000000000000000000000000000800188016345785d8a00008301bd5188fffffffffffffffe00a0000000000000000000000000000000000000000000000000000000000000000088000000000000000007a056e81f171bcc55a6ff8345e692c0f86e5b48e01b996cadc001622fb5e363b4218080a0000000000000000000000000000000000000000000000000fffffffffffffffef888b88602f88301808007830f424094000000000000000000000000000000000000010080a0000000000000000000000000000000000000000000000000fffffffffffffffec080a08ada516b63964a6f07446230ca581dfa6ad8b47d8c9793b6b0ba51df01ce8b80a0779eda8846e63b5ab4916f09a951092337d6dff2ad541fecbcfaaedbd9053f5cc0c0",
                "blockHeader": {
                    "parentHash": "0x66954dfc4b83962c5606e1cf1d58a96f9a6cbc27036a9d2b3e3e6a3dd561ee54",
                    "uncleHash": "0x1dcc4de8dec75d7aab85b567b6ccd41ad312451b948a7413f0a142fd40d49347",
                    "coinbase": "0x2adc25665018aa1fe0e6bc666dac8fc2697ff9ba",
                    "stateRoot": "0xe6d73ad245ada59ed1701b13f05ec519e76b2fc225b96ee12e79d30c73fff8e2",
                    "transactionsTrie": "0x45940ea2be08d38af48890991f7625883eaa15b65319ac4c8839984d75367878",
                    "receiptTrie": "0x8045b0c2cf5b8b4b42ea3cb2bd5709d76ca145329a06a93b283e7df5930f49ad",
                    "bloom": "0x00000000000000000000000000000000000000000000000000000000000000000000000000000000000000000000000000000000000000000000000000000000000000000000000000000000000000000000000000000000000000000000000000000000000000000000000000000000000000000000000000000000000000000000000000000000000000000000000000000000000000000000000000000000000000000000000000000000000000000000000000000000000000000000000000000000000000000000000000000000000000000000000000000000000000000000000000000000000000000000000000000000000000000000000000000000",
                    "difficulty": "0x00",
                    "number": "0x01",
                    "gasLimit": "0x016345785d8a0000",
                    "gasUsed": "0x01bd51",
                    "timestamp": "0xfffffffffffffffe",
                    "extraData": "0x00",
                    "mixHash": "0x0000000000000000000000000000000000000000000000000000000000000000",
                    "nonce": "0x0000000000000000",
                    "baseFeePerGas": "0x07",
                    "withdrawalsRoot": "0x56e81f171bcc55a6ff8345e692c0f86e5b48e01b996cadc001622fb5e363b421",
                    "blobGasUsed": "0x00",
                    "excessBlobGas": "0x00",
                    "parentBeaconBlockRoot": "0x000000000000000000000000000000000000000000000000fffffffffffffffe",
                    "hash": "0xa8a7fbbce837c314ffa4a8a28f039d1fbc144fed842e73b6c9f51476236cba24"
                },
                "engineNewPayload": {
                    "executionPayload": {
                        "parentHash": "0x66954dfc4b83962c5606e1cf1d58a96f9a6cbc27036a9d2b3e3e6a3dd561ee54",
                        "feeRecipient": "0x2adc25665018aa1fe0e6bc666dac8fc2697ff9ba",
                        "stateRoot": "0xe6d73ad245ada59ed1701b13f05ec519e76b2fc225b96ee12e79d30c73fff8e2",
                        "receiptsRoot": "0x8045b0c2cf5b8b4b42ea3cb2bd5709d76ca145329a06a93b283e7df5930f49ad",
                        "logsBloom": "0x00000000000000000000000000000000000000000000000000000000000000000000000000000000000000000000000000000000000000000000000000000000000000000000000000000000000000000000000000000000000000000000000000000000000000000000000000000000000000000000000000000000000000000000000000000000000000000000000000000000000000000000000000000000000000000000000000000000000000000000000000000000000000000000000000000000000000000000000000000000000000000000000000000000000000000000000000000000000000000000000000000000000000000000000000000000",
                        "blockNumber": "0x1",
                        "gasLimit": "0x16345785d8a0000",
                        "gasUsed": "0x1bd51",
                        "timestamp": "0xfffffffffffffffe",
                        "extraData": "0x00",
                        "prevRandao": "0x0000000000000000000000000000000000000000000000000000000000000000",
                        "baseFeePerGas": "0x7",
                        "blobGasUsed": "0x0",
                        "excessBlobGas": "0x0",
                        "blockHash": "0xa8a7fbbce837c314ffa4a8a28f039d1fbc144fed842e73b6c9f51476236cba24",
                        "transactions": [
                            "0x02f88301808007830f424094000000000000000000000000000000000000010080a0000000000000000000000000000000000000000000000000fffffffffffffffec080a08ada516b63964a6f07446230ca581dfa6ad8b47d8c9793b6b0ba51df01ce8b80a0779eda8846e63b5ab4916f09a951092337d6dff2ad541fecbcfaaedbd9053f5c"
                        ],
                        "withdrawals": []
                    },
                    "expectedBlobVersionedHashes": [],
                    "version": "3",
                    "parentBeaconBlockRoot": "0x000000000000000000000000000000000000000000000000fffffffffffffffe"
                },
                "transactions": [
                    {
                        "type": "0x02",
                        "chainId": "0x01",
                        "nonce": "0x00",
                        "maxPriorityFeePerGas": "0x00",
                        "maxFeePerGas": "0x07",
                        "gasLimit": "0x0f4240",
                        "to": "0x0000000000000000000000000000000000000100",
                        "value": "0x00",
                        "data": "0x000000000000000000000000000000000000000000000000fffffffffffffffe",
                        "accessList": [],
                        "v": "0x00",
                        "r": "0x8ada516b63964a6f07446230ca581dfa6ad8b47d8c9793b6b0ba51df01ce8b80",
                        "s": "0x779eda8846e63b5ab4916f09a951092337d6dff2ad541fecbcfaaedbd9053f5c",
                        "sender": "0xa94f5374fce5edbc8e2a8697c15331677e6ebf0b"
                    }
                ],
                "uncleHeaders": [],
                "withdrawals": []
            }
        ],
        "genesisBlockHeader": {
            "parentHash": "0x0000000000000000000000000000000000000000000000000000000000000000",
            "uncleHash": "0x1dcc4de8dec75d7aab85b567b6ccd41ad312451b948a7413f0a142fd40d49347",
            "coinbase": "0x0000000000000000000000000000000000000000",
            "stateRoot": "0xbbd52b2fa3742c708efb8d3c67b97f7326739d3ce1d59542a971b93aabbdf034",
            "transactionsTrie": "0x56e81f171bcc55a6ff8345e692c0f86e5b48e01b996cadc001622fb5e363b421",
            "receiptTrie": "0x56e81f171bcc55a6ff8345e692c0f86e5b48e01b996cadc001622fb5e363b421",
            "bloom": "0x00000000000000000000000000000000000000000000000000000000000000000000000000000000000000000000000000000000000000000000000000000000000000000000000000000000000000000000000000000000000000000000000000000000000000000000000000000000000000000000000000000000000000000000000000000000000000000000000000000000000000000000000000000000000000000000000000000000000000000000000000000000000000000000000000000000000000000000000000000000000000000000000000000000000000000000000000000000000000000000000000000000000000000000000000000000",
            "difficulty": "0x00",
            "number": "0x00",
            "gasLimit": "0x016345785d8a0000",
            "gasUsed": "0x00",
            "timestamp": "0x00",
            "extraData": "0x00",
            "mixHash": "0x0000000000000000000000000000000000000000000000000000000000000000",
            "nonce": "0x0000000000000000",
            "baseFeePerGas": "0x07",
            "withdrawalsRoot": "0x56e81f171bcc55a6ff8345e692c0f86e5b48e01b996cadc001622fb5e363b421",
            "blobGasUsed": "0x00",
            "excessBlobGas": "0x00",
            "parentBeaconBlockRoot": "0x0000000000000000000000000000000000000000000000000000000000000000",
            "hash": "0x66954dfc4b83962c5606e1cf1d58a96f9a6cbc27036a9d2b3e3e6a3dd561ee54"
        },
        "genesisRLP": "0xf90240f9023aa00000000000000000000000000000000000000000000000000000000000000000a01dcc4de8dec75d7aab85b567b6ccd41ad312451b948a7413f0a142fd40d49347940000000000000000000000000000000000000000a0bbd52b2fa3742c708efb8d3c67b97f7326739d3ce1d59542a971b93aabbdf034a056e81f171bcc55a6ff8345e692c0f86e5b48e01b996cadc001622fb5e363b421a056e81f171bcc55a6ff8345e692c0f86e5b48e01b996cadc001622fb5e363b421b9010000000000000000000000000000000000000000000000000000000000000000000000000000000000000000000000000000000000000000000000000000000000000000000000000000000000000000000000000000000000000000000000000000000000000000000000000000000000000000000000000000000000000000000000000000000000000000000000000000000000000000000000000000000000000000000000000000000000000000000000000000000000000000000000000000000000000000000000000000000000000000000000000000000000000000000000000000000000000000000000000000000000000000000000000000000000808088016345785d8a0000808000a0000000000000000000000000000000000000000000000000000000000000000088000000000000000007a056e81f171bcc55a6ff8345e692c0f86e5b48e01b996cadc001622fb5e363b4218080a00000000000000000000000000000000000000000000000000000000000000000c0c0c0",
        "lastblockhash": "0xa8a7fbbce837c314ffa4a8a28f039d1fbc144fed842e73b6c9f51476236cba24",
        "network": "Cancun",
        "pre": {
            "0x000000000000000000000000000000000000000b": {
                "nonce": "0x01",
                "balance": "0x01",
                "code": "0x",
                "storage": {}
            },
            "0x0000000000000000000000000000000000000100": {
                "nonce": "0x00",
                "balance": "0x010000000000",
                "code": "0x366000600037602060003660006000600b611068f16000556000516001553d6002553d600060003e600051600355",
                "storage": {}
            },
            "0xa94f5374fce5edbc8e2a8697c15331677e6ebf0b": {
                "nonce": "0x00",
                "balance": "0x010000000000",
                "code": "0x",
                "storage": {}
            }
        },
        "postState": {
            "0x000000000000000000000000000000000000000b": {
                "nonce": "0x01",
                "balance": "0x01",
                "code": "0x",
                "storage": {
                    "0xfffe": "0xfffffffffffffffe",
                    "0x027ffe": "0xfffffffffffffffe"
                }
            },
            "0x0000000000000000000000000000000000000100": {
                "nonce": "0x00",
                "balance": "0x010000000000",
                "code": "0x366000600037602060003660006000600b611068f16000556000516001553d6002553d600060003e600051600355",
                "storage": {
                    "0x00": "0x01",
                    "0x01": "0xfffffffffffffffe",
                    "0x02": "0x20",
                    "0x03": "0xfffffffffffffffe"
                }
            },
            "0xa94f5374fce5edbc8e2a8697c15331677e6ebf0b": {
                "nonce": "0x01",
                "balance": "0xfffff3d2c9",
                "code": "0x",
                "storage": {}
            }
        },
        "sealEngine": "NoProof"
    },
    "003-fork=Cancun-beacon_root=18446744073709551615-timestamp=18446744073709551615": {
        "_info": {
            "filling-transition-tool": "evm version 1.12.1-unstable-dc9e61da-20230801",
            "reference-spec": "https://github.com/ethereum/EIPs/blob/master/EIPS/eip-4788.md",
            "reference-spec-version": "f0eb6a364aaf5ccb43516fa2c269a54fb881ecfd"
        },
        "blocks": [
            {
                "rlp": "0xf902d4f90245a066954dfc4b83962c5606e1cf1d58a96f9a6cbc27036a9d2b3e3e6a3dd561ee54a01dcc4de8dec75d7aab85b567b6ccd41ad312451b948a7413f0a142fd40d49347942adc25665018aa1fe0e6bc666dac8fc2697ff9baa0fc33990c6fc0789998031b83d21f4a643f81e57bcc3a4459c3884b54e66a4bc2a05907f3e4766e470b54377808628d4b1a0a0c5bd2defe780be17f67a2fb066e6ba08045b0c2cf5b8b4b42ea3cb2bd5709d76ca145329a06a93b283e7df5930f49adb9010000000000000000000000000000000000000000000000000000000000000000000000000000000000000000000000000000000000000000000000000000000000000000000000000000000000000000000000000000000000000000000000000000000000000000000000000000000000000000000000000000000000000000000000000000000000000000000000000000000000000000000000000000000000000000000000000000000000000000000000000000000000000000000000000000000000000000000000000000000000000000000000000000000000000000000000000000000000000000000000000000000000000000000000000000000000800188016345785d8a00008301bd5188ffffffffffffffff00a0000000000000000000000000000000000000000000000000000000000000000088000000000000000007a056e81f171bcc55a6ff8345e692c0f86e5b48e01b996cadc001622fb5e363b4218080a0000000000000000000000000000000000000000000000000fffffffffffffffff888b88602f88301808007830f424094000000000000000000000000000000000000010080a0000000000000000000000000000000000000000000000000ffffffffffffffffc080a0fd3e629c54b1e09f0e5465bc330b65ad3b5f71829273427c62b94d25af1c259ea04ef3fe26f50c507a69db97c193966b83256b437a8a58f5d9dc32b8fd88522d7cc0c0",
                "blockHeader": {
                    "parentHash": "0x66954dfc4b83962c5606e1cf1d58a96f9a6cbc27036a9d2b3e3e6a3dd561ee54",
                    "uncleHash": "0x1dcc4de8dec75d7aab85b567b6ccd41ad312451b948a7413f0a142fd40d49347",
                    "coinbase": "0x2adc25665018aa1fe0e6bc666dac8fc2697ff9ba",
                    "stateRoot": "0xfc33990c6fc0789998031b83d21f4a643f81e57bcc3a4459c3884b54e66a4bc2",
                    "transactionsTrie": "0x5907f3e4766e470b54377808628d4b1a0a0c5bd2defe780be17f67a2fb066e6b",
                    "receiptTrie": "0x8045b0c2cf5b8b4b42ea3cb2bd5709d76ca145329a06a93b283e7df5930f49ad",
                    "bloom": "0x00000000000000000000000000000000000000000000000000000000000000000000000000000000000000000000000000000000000000000000000000000000000000000000000000000000000000000000000000000000000000000000000000000000000000000000000000000000000000000000000000000000000000000000000000000000000000000000000000000000000000000000000000000000000000000000000000000000000000000000000000000000000000000000000000000000000000000000000000000000000000000000000000000000000000000000000000000000000000000000000000000000000000000000000000000000",
                    "difficulty": "0x00",
                    "number": "0x01",
                    "gasLimit": "0x016345785d8a0000",
                    "gasUsed": "0x01bd51",
                    "timestamp": "0xffffffffffffffff",
                    "extraData": "0x00",
                    "mixHash": "0x0000000000000000000000000000000000000000000000000000000000000000",
                    "nonce": "0x0000000000000000",
                    "baseFeePerGas": "0x07",
                    "withdrawalsRoot": "0x56e81f171bcc55a6ff8345e692c0f86e5b48e01b996cadc001622fb5e363b421",
                    "blobGasUsed": "0x00",
                    "excessBlobGas": "0x00",
                    "parentBeaconBlockRoot": "0x000000000000000000000000000000000000000000000000ffffffffffffffff",
                    "hash": "0x8029a09902d5e4f5f81bcee42ed23894c0fd3988c417c7b588e4abfd734e8a4a"
                },
                "engineNewPayload": {
                    "executionPayload": {
                        "parentHash": "0x66954dfc4b83962c5606e1cf1d58a96f9a6cbc27036a9d2b3e3e6a3dd561ee54",
                        "feeRecipient": "0x2adc25665018aa1fe0e6bc666dac8fc2697ff9ba",
                        "stateRoot": "0xfc33990c6fc0789998031b83d21f4a643f81e57bcc3a4459c3884b54e66a4bc2",
                        "receiptsRoot": "0x8045b0c2cf5b8b4b42ea3cb2bd5709d76ca145329a06a93b283e7df5930f49ad",
                        "logsBloom": "0x00000000000000000000000000000000000000000000000000000000000000000000000000000000000000000000000000000000000000000000000000000000000000000000000000000000000000000000000000000000000000000000000000000000000000000000000000000000000000000000000000000000000000000000000000000000000000000000000000000000000000000000000000000000000000000000000000000000000000000000000000000000000000000000000000000000000000000000000000000000000000000000000000000000000000000000000000000000000000000000000000000000000000000000000000000000",
                        "blockNumber": "0x1",
                        "gasLimit": "0x16345785d8a0000",
                        "gasUsed": "0x1bd51",
                        "timestamp": "0xffffffffffffffff",
                        "extraData": "0x00",
                        "prevRandao": "0x0000000000000000000000000000000000000000000000000000000000000000",
                        "baseFeePerGas": "0x7",
                        "blobGasUsed": "0x0",
                        "excessBlobGas": "0x0",
                        "blockHash": "0x8029a09902d5e4f5f81bcee42ed23894c0fd3988c417c7b588e4abfd734e8a4a",
                        "transactions": [
                            "0x02f88301808007830f424094000000000000000000000000000000000000010080a0000000000000000000000000000000000000000000000000ffffffffffffffffc080a0fd3e629c54b1e09f0e5465bc330b65ad3b5f71829273427c62b94d25af1c259ea04ef3fe26f50c507a69db97c193966b83256b437a8a58f5d9dc32b8fd88522d7c"
                        ],
                        "withdrawals": []
                    },
                    "expectedBlobVersionedHashes": [],
                    "version": "3",
                    "parentBeaconBlockRoot": "0x000000000000000000000000000000000000000000000000ffffffffffffffff"
                },
                "transactions": [
                    {
                        "type": "0x02",
                        "chainId": "0x01",
                        "nonce": "0x00",
                        "maxPriorityFeePerGas": "0x00",
                        "maxFeePerGas": "0x07",
                        "gasLimit": "0x0f4240",
                        "to": "0x0000000000000000000000000000000000000100",
                        "value": "0x00",
                        "data": "0x000000000000000000000000000000000000000000000000ffffffffffffffff",
                        "accessList": [],
                        "v": "0x00",
                        "r": "0xfd3e629c54b1e09f0e5465bc330b65ad3b5f71829273427c62b94d25af1c259e",
                        "s": "0x4ef3fe26f50c507a69db97c193966b83256b437a8a58f5d9dc32b8fd88522d7c",
                        "sender": "0xa94f5374fce5edbc8e2a8697c15331677e6ebf0b"
                    }
                ],
                "uncleHeaders": [],
                "withdrawals": []
            }
        ],
        "genesisBlockHeader": {
            "parentHash": "0x0000000000000000000000000000000000000000000000000000000000000000",
            "uncleHash": "0x1dcc4de8dec75d7aab85b567b6ccd41ad312451b948a7413f0a142fd40d49347",
            "coinbase": "0x0000000000000000000000000000000000000000",
            "stateRoot": "0xbbd52b2fa3742c708efb8d3c67b97f7326739d3ce1d59542a971b93aabbdf034",
            "transactionsTrie": "0x56e81f171bcc55a6ff8345e692c0f86e5b48e01b996cadc001622fb5e363b421",
            "receiptTrie": "0x56e81f171bcc55a6ff8345e692c0f86e5b48e01b996cadc001622fb5e363b421",
            "bloom": "0x00000000000000000000000000000000000000000000000000000000000000000000000000000000000000000000000000000000000000000000000000000000000000000000000000000000000000000000000000000000000000000000000000000000000000000000000000000000000000000000000000000000000000000000000000000000000000000000000000000000000000000000000000000000000000000000000000000000000000000000000000000000000000000000000000000000000000000000000000000000000000000000000000000000000000000000000000000000000000000000000000000000000000000000000000000000",
            "difficulty": "0x00",
            "number": "0x00",
            "gasLimit": "0x016345785d8a0000",
            "gasUsed": "0x00",
            "timestamp": "0x00",
            "extraData": "0x00",
            "mixHash": "0x0000000000000000000000000000000000000000000000000000000000000000",
            "nonce": "0x0000000000000000",
            "baseFeePerGas": "0x07",
            "withdrawalsRoot": "0x56e81f171bcc55a6ff8345e692c0f86e5b48e01b996cadc001622fb5e363b421",
            "blobGasUsed": "0x00",
            "excessBlobGas": "0x00",
            "parentBeaconBlockRoot": "0x0000000000000000000000000000000000000000000000000000000000000000",
            "hash": "0x66954dfc4b83962c5606e1cf1d58a96f9a6cbc27036a9d2b3e3e6a3dd561ee54"
        },
        "genesisRLP": "0xf90240f9023aa00000000000000000000000000000000000000000000000000000000000000000a01dcc4de8dec75d7aab85b567b6ccd41ad312451b948a7413f0a142fd40d49347940000000000000000000000000000000000000000a0bbd52b2fa3742c708efb8d3c67b97f7326739d3ce1d59542a971b93aabbdf034a056e81f171bcc55a6ff8345e692c0f86e5b48e01b996cadc001622fb5e363b421a056e81f171bcc55a6ff8345e692c0f86e5b48e01b996cadc001622fb5e363b421b9010000000000000000000000000000000000000000000000000000000000000000000000000000000000000000000000000000000000000000000000000000000000000000000000000000000000000000000000000000000000000000000000000000000000000000000000000000000000000000000000000000000000000000000000000000000000000000000000000000000000000000000000000000000000000000000000000000000000000000000000000000000000000000000000000000000000000000000000000000000000000000000000000000000000000000000000000000000000000000000000000000000000000000000000000000000000808088016345785d8a0000808000a0000000000000000000000000000000000000000000000000000000000000000088000000000000000007a056e81f171bcc55a6ff8345e692c0f86e5b48e01b996cadc001622fb5e363b4218080a00000000000000000000000000000000000000000000000000000000000000000c0c0c0",
        "lastblockhash": "0x8029a09902d5e4f5f81bcee42ed23894c0fd3988c417c7b588e4abfd734e8a4a",
        "network": "Cancun",
        "pre": {
            "0x000000000000000000000000000000000000000b": {
                "nonce": "0x01",
                "balance": "0x01",
                "code": "0x",
                "storage": {}
            },
            "0x0000000000000000000000000000000000000100": {
                "nonce": "0x00",
                "balance": "0x010000000000",
                "code": "0x366000600037602060003660006000600b611068f16000556000516001553d6002553d600060003e600051600355",
                "storage": {}
            },
            "0xa94f5374fce5edbc8e2a8697c15331677e6ebf0b": {
                "nonce": "0x00",
                "balance": "0x010000000000",
                "code": "0x",
                "storage": {}
            }
        },
        "postState": {
            "0x000000000000000000000000000000000000000b": {
                "nonce": "0x01",
                "balance": "0x01",
                "code": "0x",
                "storage": {
                    "0xffff": "0xffffffffffffffff",
                    "0x027fff": "0xffffffffffffffff"
                }
            },
            "0x0000000000000000000000000000000000000100": {
                "nonce": "0x00",
                "balance": "0x010000000000",
                "code": "0x366000600037602060003660006000600b611068f16000556000516001553d6002553d600060003e600051600355",
                "storage": {
                    "0x00": "0x01",
                    "0x01": "0xffffffffffffffff",
                    "0x02": "0x20",
                    "0x03": "0xffffffffffffffff"
                }
            },
            "0xa94f5374fce5edbc8e2a8697c15331677e6ebf0b": {
                "nonce": "0x01",
                "balance": "0xfffff3d2c9",
                "code": "0x",
                "storage": {}
            }
        },
        "sealEngine": "NoProof"
    }
}